{"contracts/lottery.sol":{"Lottery":{"abi":[{"inputs":[{"internalType":"address","name":"vrfCoordinatorV2","type":"address"},{"internalType":"uint256","name":"entranceFee","type":"uint256"},{"internalType":"bytes32","name":"gasLane","type":"bytes32"},{"internalType":"uint64","name":"subscriptionId","type":"uint64"},{"internalType":"uint32","name":"callbackGasLimit","type":"uint32"},{"internalType":"uint256","name":"interval","type":"uint256"}],"stateMutability":"nonpayable","type":"constructor"},{"inputs":[],"name":"Lottery__NotEnoughETHEntered","type":"error"},{"inputs":[],"name":"Lottery__NotOpen","type":"error"},{"inputs":[],"name":"Lottery__WinnerTransferFailed","type":"error"},{"inputs":[{"internalType":"uint256","name":"currentBalance","type":"uint256"},{"internalType":"uint256","name":"numPlayers","type":"uint256"},{"internalType":"uint256","name":"lotteryState","type":"uint256"}],"name":"Lottery_checkUpKeepfalse","type":"error"},{"inputs":[{"internalType":"address","name":"have","type":"address"},{"internalType":"address","name":"want","type":"address"}],"name":"OnlyCoordinatorCanFulfill","type":"error"},{"anonymous":false,"inputs":[{"indexed":true,"internalType":"address","name":"player","type":"address"}],"name":"LotteryEnter","type":"event"},{"anonymous":false,"inputs":[{"indexed":true,"internalType":"uint256","name":"requestId","type":"uint256"}],"name":"RequestedLotteryWinner","type":"event"},{"anonymous":false,"inputs":[{"indexed":true,"internalType":"address","name":"winner","type":"address"}],"name":"WinnerPicked","type":"event"},{"inputs":[{"internalType":"bytes","name":"","type":"bytes"}],"name":"checkUpkeep","outputs":[{"internalType":"bool","name":"upkeepNeeded","type":"bool"},{"internalType":"bytes","name":"","type":"bytes"}],"stateMutability":"nonpayable","type":"function"},{"inputs":[],"name":"enterLottery","outputs":[],"stateMutability":"payable","type":"function"},{"inputs":[],"name":"getEntranceFee","outputs":[{"internalType":"uint256","name":"","type":"uint256"}],"stateMutability":"view","type":"function"},{"inputs":[],"name":"getLatestTimeStamp","outputs":[{"internalType":"uint256","name":"","type":"uint256"}],"stateMutability":"view","type":"function"},{"inputs":[],"name":"getLotteryState","outputs":[{"internalType":"enum Lottery.LotteryState","name":"","type":"uint8"}],"stateMutability":"view","type":"function"},{"inputs":[],"name":"getNumWords","outputs":[{"internalType":"uint256","name":"","type":"uint256"}],"stateMutability":"pure","type":"function"},{"inputs":[],"name":"getNumberOfPlayers","outputs":[{"internalType":"uint256","name":"","type":"uint256"}],"stateMutability":"view","type":"function"},{"inputs":[{"internalType":"uint256","name":"index","type":"uint256"}],"name":"getPlayers","outputs":[{"internalType":"address","name":"","type":"address"}],"stateMutability":"view","type":"function"},{"inputs":[],"name":"getRecentWinner","outputs":[{"internalType":"address","name":"","type":"address"}],"stateMutability":"view","type":"function"},{"inputs":[],"name":"getRequestConfirmations","outputs":[{"internalType":"uint256","name":"","type":"uint256"}],"stateMutability":"pure","type":"function"},{"inputs":[{"internalType":"bytes","name":"","type":"bytes"}],"name":"performUpkeep","outputs":[],"stateMutability":"nonpayable","type":"function"},{"inputs":[{"internalType":"uint256","name":"requestId","type":"uint256"},{"internalType":"uint256[]","name":"randomWords","type":"uint256[]"}],"name":"rawFulfillRandomWords","outputs":[],"stateMutability":"nonpayable","type":"function"}],"devdoc":{"author":"Jatin Kalra","details":"This implements Chainlink VRF V2 & Chainlink Keepers","kind":"dev","methods":{"checkUpkeep(bytes)":{"details":"This is a function that Chainlink Keepers nodes call They look for the `upkeepNeeded` to return true The following should be true in order to return true: i. Our time internal should have passed ii. The lottery should have atleast 1 player, and have some ETH iii. Our subscription is funded with LINK iv. The lottery should be in an \"open\" state."}},"title":"A sample lottery contract","version":1},"evm":{"bytecode":{"linkReferences":{},"object":"6101406040523480156200001257600080fd5b506040516200176238038062001762833981810160405281019062000038919062000292565b858073ffffffffffffffffffffffffffffffffffffffff1660808173ffffffffffffffffffffffffffffffffffffffff1681525050508460a081815250508573ffffffffffffffffffffffffffffffffffffffff1660c08173ffffffffffffffffffffffffffffffffffffffff16815250508360e081815250508267ffffffffffffffff166101008167ffffffffffffffff16815250508163ffffffff166101208163ffffffff16815250506000600160146101000a81548160ff021916908360018111156200010d576200010c6200032e565b5b021790555042600281905550806003819055505050505050506200035d565b600080fd5b600073ffffffffffffffffffffffffffffffffffffffff82169050919050565b60006200015e8262000131565b9050919050565b620001708162000151565b81146200017c57600080fd5b50565b600081519050620001908162000165565b92915050565b6000819050919050565b620001ab8162000196565b8114620001b757600080fd5b50565b600081519050620001cb81620001a0565b92915050565b6000819050919050565b620001e681620001d1565b8114620001f257600080fd5b50565b6000815190506200020681620001db565b92915050565b600067ffffffffffffffff82169050919050565b6200022b816200020c565b81146200023757600080fd5b50565b6000815190506200024b8162000220565b92915050565b600063ffffffff82169050919050565b6200026c8162000251565b81146200027857600080fd5b50565b6000815190506200028c8162000261565b92915050565b60008060008060008060c08789031215620002b257620002b16200012c565b5b6000620002c289828a016200017f565b9650506020620002d589828a01620001ba565b9550506040620002e889828a01620001f5565b9450506060620002fb89828a016200023a565b93505060806200030e89828a016200027b565b92505060a06200032189828a01620001ba565b9150509295509295509295565b7f4e487b7100000000000000000000000000000000000000000000000000000000600052602160045260246000fd5b60805160a05160c05160e05161010051610120516113a7620003bb60003960006104d9015260006104b601526000610495015260006104590152600081816102b401526106c70152600081816102da015261032e01526113a76000f3fe6080604052600436106100a75760003560e01c806353a2c19a1161006457806353a2c19a146101bc5780635f1b0fd8146101e75780636b68c03c146102125780636e04ff0d1461023d578063c1af57851461027b578063fd6673f514610285576100a7565b806309bc33a7146100ac5780631fe543e3146100d7578063320229eb146101005780634585e33b1461012b578063460e204914610154578063473f1ddc14610191575b600080fd5b3480156100b857600080fd5b506100c16102b0565b6040516100ce9190610b31565b60405180910390f35b3480156100e357600080fd5b506100fe60048036038101906100f99190610ce5565b6102d8565b005b34801561010c57600080fd5b50610115610398565b6040516101229190610b31565b60405180910390f35b34801561013757600080fd5b50610152600480360381019061014d9190610d9c565b6103a2565b005b34801561016057600080fd5b5061017b60048036038101906101769190610de9565b610592565b6040516101889190610e57565b60405180910390f35b34801561019d57600080fd5b506101a66105d9565b6040516101b39190610e57565b60405180910390f35b3480156101c857600080fd5b506101d1610603565b6040516101de9190610b31565b60405180910390f35b3480156101f357600080fd5b506101fc610612565b6040516102099190610b31565b60405180910390f35b34801561021e57600080fd5b5061022761061f565b6040516102349190610ee9565b60405180910390f35b34801561024957600080fd5b50610264600480360381019061025f9190610fb9565b610636565b60405161027292919061109c565b60405180910390f35b6102836106c5565b005b34801561029157600080fd5b5061029a610834565b6040516102a79190610b31565b60405180910390f35b60007f0000000000000000000000000000000000000000000000000000000000000000905090565b7f000000000000000000000000000000000000000000000000000000000000000073ffffffffffffffffffffffffffffffffffffffff163373ffffffffffffffffffffffffffffffffffffffff161461038a57337f00000000000000000000000000000000000000000000000000000000000000006040517f1cf993f40000000000000000000000000000000000000000000000000000000081526004016103819291906110cc565b60405180910390fd5b6103948282610840565b5050565b6000600254905090565b60006103bc60405180602001604052806000815250610636565b5090508061042b5747600080549050600160149054906101000a900460ff1660018111156103ed576103ec610e72565b5b6040517f3c96b78a000000000000000000000000000000000000000000000000000000008152600401610422939291906110f5565b60405180910390fd5b60018060146101000a81548160ff021916908360018111156104505761044f610e72565b5b021790555060007f000000000000000000000000000000000000000000000000000000000000000073ffffffffffffffffffffffffffffffffffffffff16635d3b1d307f00000000000000000000000000000000000000000000000000000000000000007f000000000000000000000000000000000000000000000000000000000000000060037f000000000000000000000000000000000000000000000000000000000000000060016040518663ffffffff1660e01b815260040161051a9594939291906111a4565b6020604051808303816000875af1158015610539573d6000803e3d6000fd5b505050506040513d601f19601f8201168201806040525081019061055d919061120c565b9050807febf56642252004c18a776f30d528e7a0ce8c5db14b6596fb6550f630c8a24c6c60405160405180910390a250505050565b60008082815481106105a7576105a6611239565b5b9060005260206000200160009054906101000a900473ffffffffffffffffffffffffffffffffffffffff169050919050565b6000600160009054906101000a900473ffffffffffffffffffffffffffffffffffffffff16905090565b6000600163ffffffff16905090565b6000600361ffff16905090565b6000600160149054906101000a900460ff16905090565b600060606000600160149054906101000a900460ff16600181111561065e5761065d610e72565b5b6000600181111561067257610671610e72565b5b1490506000600354600254426106889190611297565b119050600080600080549050119050600080471190508380156106a85750825b80156106b15750815b80156106ba5750805b955050505050915091565b7f000000000000000000000000000000000000000000000000000000000000000034101561071f576040517fec269fd100000000000000000000000000000000000000000000000000000000815260040160405180910390fd5b6000600181111561073357610732610e72565b5b600160149054906101000a900460ff16600181111561075557610754610e72565b5b1461078c576040517fe76be6fc00000000000000000000000000000000000000000000000000000000815260040160405180910390fd5b6000339080600181540180825580915050600190039060005260206000200160009091909190916101000a81548173ffffffffffffffffffffffffffffffffffffffff021916908373ffffffffffffffffffffffffffffffffffffffff1602179055503373ffffffffffffffffffffffffffffffffffffffff167f1d64fb5ba9f2548c5b98468d58f25b87b9e866afee0122e92d9fe722bf85076c60405160405180910390a2565b60008080549050905090565b600080805490508260008151811061085b5761085a611239565b5b602002602001015161086d91906112fa565b9050600080828154811061088457610883611239565b5b9060005260206000200160009054906101000a900473ffffffffffffffffffffffffffffffffffffffff16905080600160006101000a81548173ffffffffffffffffffffffffffffffffffffffff021916908373ffffffffffffffffffffffffffffffffffffffff1602179055506000600160146101000a81548160ff0219169083600181111561091857610917610e72565b5b021790555060008173ffffffffffffffffffffffffffffffffffffffff16476040516109439061135c565b60006040518083038185875af1925050503d8060008114610980576040519150601f19603f3d011682016040523d82523d6000602084013e610985565b606091505b50509050806109c0576040517f061104de00000000000000000000000000000000000000000000000000000000815260040160405180910390fd5b8173ffffffffffffffffffffffffffffffffffffffff167f5b690ec4a06fe979403046eaeea5b3ce38524683c3001f662c8b5a829632f7df60405160405180910390a2600067ffffffffffffffff811115610a1e57610a1d610ba2565b5b604051908082528060200260200182016040528015610a4c5781602001602082028036833780820191505090505b5060009080519060200190610a62929190610a71565b50426002819055505050505050565b828054828255906000526020600020908101928215610aea579160200282015b82811115610ae95782518260006101000a81548173ffffffffffffffffffffffffffffffffffffffff021916908373ffffffffffffffffffffffffffffffffffffffff16021790555091602001919060010190610a91565b5b509050610af79190610afb565b5090565b5b80821115610b14576000816000905550600101610afc565b5090565b6000819050919050565b610b2b81610b18565b82525050565b6000602082019050610b466000830184610b22565b92915050565b6000604051905090565b600080fd5b600080fd5b610b6981610b18565b8114610b7457600080fd5b50565b600081359050610b8681610b60565b92915050565b600080fd5b6000601f19601f8301169050919050565b7f4e487b7100000000000000000000000000000000000000000000000000000000600052604160045260246000fd5b610bda82610b91565b810181811067ffffffffffffffff82111715610bf957610bf8610ba2565b5b80604052505050565b6000610c0c610b4c565b9050610c188282610bd1565b919050565b600067ffffffffffffffff821115610c3857610c37610ba2565b5b602082029050602081019050919050565b600080fd5b6000610c61610c5c84610c1d565b610c02565b90508083825260208201905060208402830185811115610c8457610c83610c49565b5b835b81811015610cad5780610c998882610b77565b845260208401935050602081019050610c86565b5050509392505050565b600082601f830112610ccc57610ccb610b8c565b5b8135610cdc848260208601610c4e565b91505092915050565b60008060408385031215610cfc57610cfb610b56565b5b6000610d0a85828601610b77565b925050602083013567ffffffffffffffff811115610d2b57610d2a610b5b565b5b610d3785828601610cb7565b9150509250929050565b600080fd5b60008083601f840112610d5c57610d5b610b8c565b5b8235905067ffffffffffffffff811115610d7957610d78610d41565b5b602083019150836001820283011115610d9557610d94610c49565b5b9250929050565b60008060208385031215610db357610db2610b56565b5b600083013567ffffffffffffffff811115610dd157610dd0610b5b565b5b610ddd85828601610d46565b92509250509250929050565b600060208284031215610dff57610dfe610b56565b5b6000610e0d84828501610b77565b91505092915050565b600073ffffffffffffffffffffffffffffffffffffffff82169050919050565b6000610e4182610e16565b9050919050565b610e5181610e36565b82525050565b6000602082019050610e6c6000830184610e48565b92915050565b7f4e487b7100000000000000000000000000000000000000000000000000000000600052602160045260246000fd5b60028110610eb257610eb1610e72565b5b50565b6000819050610ec382610ea1565b919050565b6000610ed382610eb5565b9050919050565b610ee381610ec8565b82525050565b6000602082019050610efe6000830184610eda565b92915050565b600080fd5b600067ffffffffffffffff821115610f2457610f23610ba2565b5b610f2d82610b91565b9050602081019050919050565b82818337600083830152505050565b6000610f5c610f5784610f09565b610c02565b905082815260208101848484011115610f7857610f77610f04565b5b610f83848285610f3a565b509392505050565b600082601f830112610fa057610f9f610b8c565b5b8135610fb0848260208601610f49565b91505092915050565b600060208284031215610fcf57610fce610b56565b5b600082013567ffffffffffffffff811115610fed57610fec610b5b565b5b610ff984828501610f8b565b91505092915050565b60008115159050919050565b61101781611002565b82525050565b600081519050919050565b600082825260208201905092915050565b60005b8381101561105757808201518184015260208101905061103c565b60008484015250505050565b600061106e8261101d565b6110788185611028565b9350611088818560208601611039565b61109181610b91565b840191505092915050565b60006040820190506110b1600083018561100e565b81810360208301526110c38184611063565b90509392505050565b60006040820190506110e16000830185610e48565b6110ee6020830184610e48565b9392505050565b600060608201905061110a6000830186610b22565b6111176020830185610b22565b6111246040830184610b22565b949350505050565b6000819050919050565b61113f8161112c565b82525050565b600067ffffffffffffffff82169050919050565b61116281611145565b82525050565b600061ffff82169050919050565b61117f81611168565b82525050565b600063ffffffff82169050919050565b61119e81611185565b82525050565b600060a0820190506111b96000830188611136565b6111c66020830187611159565b6111d36040830186611176565b6111e06060830185611195565b6111ed6080830184611195565b9695505050505050565b60008151905061120681610b60565b92915050565b60006020828403121561122257611221610b56565b5b6000611230848285016111f7565b91505092915050565b7f4e487b7100000000000000000000000000000000000000000000000000000000600052603260045260246000fd5b7f4e487b7100000000000000000000000000000000000000000000000000000000600052601160045260246000fd5b60006112a282610b18565b91506112ad83610b18565b92508282039050818111156112c5576112c4611268565b5b92915050565b7f4e487b7100000000000000000000000000000000000000000000000000000000600052601260045260246000fd5b600061130582610b18565b915061131083610b18565b9250826113205761131f6112cb565b5b828206905092915050565b600081905092915050565b50565b600061134660008361132b565b915061135182611336565b600082019050919050565b600061136782611339565b915081905091905056fea26469706673582212204807b3e60b9d5a4712a21d1de18313493d9892e4a07b6040fe91cc0de65422f264736f6c63430008120033","opcodes":"PUSH2 0x140 PUSH1 0x40 MSTORE CALLVALUE DUP1 ISZERO PUSH3 0x12 JUMPI PUSH1 0x0 DUP1 REVERT JUMPDEST POP PUSH1 0x40 MLOAD PUSH3 0x1762 CODESIZE SUB DUP1 PUSH3 0x1762 DUP4 CODECOPY DUP2 DUP2 ADD PUSH1 0x40 MSTORE DUP2 ADD SWAP1 PUSH3 0x38 SWAP2 SWAP1 PUSH3 0x292 JUMP JUMPDEST DUP6 DUP1 PUSH20 0xFFFFFFFFFFFFFFFFFFFFFFFFFFFFFFFFFFFFFFFF AND PUSH1 0x80 DUP2 PUSH20 0xFFFFFFFFFFFFFFFFFFFFFFFFFFFFFFFFFFFFFFFF AND DUP2 MSTORE POP POP POP DUP5 PUSH1 0xA0 DUP2 DUP2 MSTORE POP POP DUP6 PUSH20 0xFFFFFFFFFFFFFFFFFFFFFFFFFFFFFFFFFFFFFFFF AND PUSH1 0xC0 DUP2 PUSH20 0xFFFFFFFFFFFFFFFFFFFFFFFFFFFFFFFFFFFFFFFF AND DUP2 MSTORE POP POP DUP4 PUSH1 0xE0 DUP2 DUP2 MSTORE POP POP DUP3 PUSH8 0xFFFFFFFFFFFFFFFF AND PUSH2 0x100 DUP2 PUSH8 0xFFFFFFFFFFFFFFFF AND DUP2 MSTORE POP POP DUP2 PUSH4 0xFFFFFFFF AND PUSH2 0x120 DUP2 PUSH4 0xFFFFFFFF AND DUP2 MSTORE POP POP PUSH1 0x0 PUSH1 0x1 PUSH1 0x14 PUSH2 0x100 EXP DUP2 SLOAD DUP2 PUSH1 0xFF MUL NOT AND SWAP1 DUP4 PUSH1 0x1 DUP2 GT ISZERO PUSH3 0x10D JUMPI PUSH3 0x10C PUSH3 0x32E JUMP JUMPDEST JUMPDEST MUL OR SWAP1 SSTORE POP TIMESTAMP PUSH1 0x2 DUP2 SWAP1 SSTORE POP DUP1 PUSH1 0x3 DUP2 SWAP1 SSTORE POP POP POP POP POP POP POP PUSH3 0x35D JUMP JUMPDEST PUSH1 0x0 DUP1 REVERT JUMPDEST PUSH1 0x0 PUSH20 0xFFFFFFFFFFFFFFFFFFFFFFFFFFFFFFFFFFFFFFFF DUP3 AND SWAP1 POP SWAP2 SWAP1 POP JUMP JUMPDEST PUSH1 0x0 PUSH3 0x15E DUP3 PUSH3 0x131 JUMP JUMPDEST SWAP1 POP SWAP2 SWAP1 POP JUMP JUMPDEST PUSH3 0x170 DUP2 PUSH3 0x151 JUMP JUMPDEST DUP2 EQ PUSH3 0x17C JUMPI PUSH1 0x0 DUP1 REVERT JUMPDEST POP JUMP JUMPDEST PUSH1 0x0 DUP2 MLOAD SWAP1 POP PUSH3 0x190 DUP2 PUSH3 0x165 JUMP JUMPDEST SWAP3 SWAP2 POP POP JUMP JUMPDEST PUSH1 0x0 DUP2 SWAP1 POP SWAP2 SWAP1 POP JUMP JUMPDEST PUSH3 0x1AB DUP2 PUSH3 0x196 JUMP JUMPDEST DUP2 EQ PUSH3 0x1B7 JUMPI PUSH1 0x0 DUP1 REVERT JUMPDEST POP JUMP JUMPDEST PUSH1 0x0 DUP2 MLOAD SWAP1 POP PUSH3 0x1CB DUP2 PUSH3 0x1A0 JUMP JUMPDEST SWAP3 SWAP2 POP POP JUMP JUMPDEST PUSH1 0x0 DUP2 SWAP1 POP SWAP2 SWAP1 POP JUMP JUMPDEST PUSH3 0x1E6 DUP2 PUSH3 0x1D1 JUMP JUMPDEST DUP2 EQ PUSH3 0x1F2 JUMPI PUSH1 0x0 DUP1 REVERT JUMPDEST POP JUMP JUMPDEST PUSH1 0x0 DUP2 MLOAD SWAP1 POP PUSH3 0x206 DUP2 PUSH3 0x1DB JUMP JUMPDEST SWAP3 SWAP2 POP POP JUMP JUMPDEST PUSH1 0x0 PUSH8 0xFFFFFFFFFFFFFFFF DUP3 AND SWAP1 POP SWAP2 SWAP1 POP JUMP JUMPDEST PUSH3 0x22B DUP2 PUSH3 0x20C JUMP JUMPDEST DUP2 EQ PUSH3 0x237 JUMPI PUSH1 0x0 DUP1 REVERT JUMPDEST POP JUMP JUMPDEST PUSH1 0x0 DUP2 MLOAD SWAP1 POP PUSH3 0x24B DUP2 PUSH3 0x220 JUMP JUMPDEST SWAP3 SWAP2 POP POP JUMP JUMPDEST PUSH1 0x0 PUSH4 0xFFFFFFFF DUP3 AND SWAP1 POP SWAP2 SWAP1 POP JUMP JUMPDEST PUSH3 0x26C DUP2 PUSH3 0x251 JUMP JUMPDEST DUP2 EQ PUSH3 0x278 JUMPI PUSH1 0x0 DUP1 REVERT JUMPDEST POP JUMP JUMPDEST PUSH1 0x0 DUP2 MLOAD SWAP1 POP PUSH3 0x28C DUP2 PUSH3 0x261 JUMP JUMPDEST SWAP3 SWAP2 POP POP JUMP JUMPDEST PUSH1 0x0 DUP1 PUSH1 0x0 DUP1 PUSH1 0x0 DUP1 PUSH1 0xC0 DUP8 DUP10 SUB SLT ISZERO PUSH3 0x2B2 JUMPI PUSH3 0x2B1 PUSH3 0x12C JUMP JUMPDEST JUMPDEST PUSH1 0x0 PUSH3 0x2C2 DUP10 DUP3 DUP11 ADD PUSH3 0x17F JUMP JUMPDEST SWAP7 POP POP PUSH1 0x20 PUSH3 0x2D5 DUP10 DUP3 DUP11 ADD PUSH3 0x1BA JUMP JUMPDEST SWAP6 POP POP PUSH1 0x40 PUSH3 0x2E8 DUP10 DUP3 DUP11 ADD PUSH3 0x1F5 JUMP JUMPDEST SWAP5 POP POP PUSH1 0x60 PUSH3 0x2FB DUP10 DUP3 DUP11 ADD PUSH3 0x23A JUMP JUMPDEST SWAP4 POP POP PUSH1 0x80 PUSH3 0x30E DUP10 DUP3 DUP11 ADD PUSH3 0x27B JUMP JUMPDEST SWAP3 POP POP PUSH1 0xA0 PUSH3 0x321 DUP10 DUP3 DUP11 ADD PUSH3 0x1BA JUMP JUMPDEST SWAP2 POP POP SWAP3 SWAP6 POP SWAP3 SWAP6 POP SWAP3 SWAP6 JUMP JUMPDEST PUSH32 0x4E487B7100000000000000000000000000000000000000000000000000000000 PUSH1 0x0 MSTORE PUSH1 0x21 PUSH1 0x4 MSTORE PUSH1 0x24 PUSH1 0x0 REVERT JUMPDEST PUSH1 0x80 MLOAD PUSH1 0xA0 MLOAD PUSH1 0xC0 MLOAD PUSH1 0xE0 MLOAD PUSH2 0x100 MLOAD PUSH2 0x120 MLOAD PUSH2 0x13A7 PUSH3 0x3BB PUSH1 0x0 CODECOPY PUSH1 0x0 PUSH2 0x4D9 ADD MSTORE PUSH1 0x0 PUSH2 0x4B6 ADD MSTORE PUSH1 0x0 PUSH2 0x495 ADD MSTORE PUSH1 0x0 PUSH2 0x459 ADD MSTORE PUSH1 0x0 DUP2 DUP2 PUSH2 0x2B4 ADD MSTORE PUSH2 0x6C7 ADD MSTORE PUSH1 0x0 DUP2 DUP2 PUSH2 0x2DA ADD MSTORE PUSH2 0x32E ADD MSTORE PUSH2 0x13A7 PUSH1 0x0 RETURN INVALID PUSH1 0x80 PUSH1 0x40 MSTORE PUSH1 0x4 CALLDATASIZE LT PUSH2 0xA7 JUMPI PUSH1 0x0 CALLDATALOAD PUSH1 0xE0 SHR DUP1 PUSH4 0x53A2C19A GT PUSH2 0x64 JUMPI DUP1 PUSH4 0x53A2C19A EQ PUSH2 0x1BC JUMPI DUP1 PUSH4 0x5F1B0FD8 EQ PUSH2 0x1E7 JUMPI DUP1 PUSH4 0x6B68C03C EQ PUSH2 0x212 JUMPI DUP1 PUSH4 0x6E04FF0D EQ PUSH2 0x23D JUMPI DUP1 PUSH4 0xC1AF5785 EQ PUSH2 0x27B JUMPI DUP1 PUSH4 0xFD6673F5 EQ PUSH2 0x285 JUMPI PUSH2 0xA7 JUMP JUMPDEST DUP1 PUSH4 0x9BC33A7 EQ PUSH2 0xAC JUMPI DUP1 PUSH4 0x1FE543E3 EQ PUSH2 0xD7 JUMPI DUP1 PUSH4 0x320229EB EQ PUSH2 0x100 JUMPI DUP1 PUSH4 0x4585E33B EQ PUSH2 0x12B JUMPI DUP1 PUSH4 0x460E2049 EQ PUSH2 0x154 JUMPI DUP1 PUSH4 0x473F1DDC EQ PUSH2 0x191 JUMPI JUMPDEST PUSH1 0x0 DUP1 REVERT JUMPDEST CALLVALUE DUP1 ISZERO PUSH2 0xB8 JUMPI PUSH1 0x0 DUP1 REVERT JUMPDEST POP PUSH2 0xC1 PUSH2 0x2B0 JUMP JUMPDEST PUSH1 0x40 MLOAD PUSH2 0xCE SWAP2 SWAP1 PUSH2 0xB31 JUMP JUMPDEST PUSH1 0x40 MLOAD DUP1 SWAP2 SUB SWAP1 RETURN JUMPDEST CALLVALUE DUP1 ISZERO PUSH2 0xE3 JUMPI PUSH1 0x0 DUP1 REVERT JUMPDEST POP PUSH2 0xFE PUSH1 0x4 DUP1 CALLDATASIZE SUB DUP2 ADD SWAP1 PUSH2 0xF9 SWAP2 SWAP1 PUSH2 0xCE5 JUMP JUMPDEST PUSH2 0x2D8 JUMP JUMPDEST STOP JUMPDEST CALLVALUE DUP1 ISZERO PUSH2 0x10C JUMPI PUSH1 0x0 DUP1 REVERT JUMPDEST POP PUSH2 0x115 PUSH2 0x398 JUMP JUMPDEST PUSH1 0x40 MLOAD PUSH2 0x122 SWAP2 SWAP1 PUSH2 0xB31 JUMP JUMPDEST PUSH1 0x40 MLOAD DUP1 SWAP2 SUB SWAP1 RETURN JUMPDEST CALLVALUE DUP1 ISZERO PUSH2 0x137 JUMPI PUSH1 0x0 DUP1 REVERT JUMPDEST POP PUSH2 0x152 PUSH1 0x4 DUP1 CALLDATASIZE SUB DUP2 ADD SWAP1 PUSH2 0x14D SWAP2 SWAP1 PUSH2 0xD9C JUMP JUMPDEST PUSH2 0x3A2 JUMP JUMPDEST STOP JUMPDEST CALLVALUE DUP1 ISZERO PUSH2 0x160 JUMPI PUSH1 0x0 DUP1 REVERT JUMPDEST POP PUSH2 0x17B PUSH1 0x4 DUP1 CALLDATASIZE SUB DUP2 ADD SWAP1 PUSH2 0x176 SWAP2 SWAP1 PUSH2 0xDE9 JUMP JUMPDEST PUSH2 0x592 JUMP JUMPDEST PUSH1 0x40 MLOAD PUSH2 0x188 SWAP2 SWAP1 PUSH2 0xE57 JUMP JUMPDEST PUSH1 0x40 MLOAD DUP1 SWAP2 SUB SWAP1 RETURN JUMPDEST CALLVALUE DUP1 ISZERO PUSH2 0x19D JUMPI PUSH1 0x0 DUP1 REVERT JUMPDEST POP PUSH2 0x1A6 PUSH2 0x5D9 JUMP JUMPDEST PUSH1 0x40 MLOAD PUSH2 0x1B3 SWAP2 SWAP1 PUSH2 0xE57 JUMP JUMPDEST PUSH1 0x40 MLOAD DUP1 SWAP2 SUB SWAP1 RETURN JUMPDEST CALLVALUE DUP1 ISZERO PUSH2 0x1C8 JUMPI PUSH1 0x0 DUP1 REVERT JUMPDEST POP PUSH2 0x1D1 PUSH2 0x603 JUMP JUMPDEST PUSH1 0x40 MLOAD PUSH2 0x1DE SWAP2 SWAP1 PUSH2 0xB31 JUMP JUMPDEST PUSH1 0x40 MLOAD DUP1 SWAP2 SUB SWAP1 RETURN JUMPDEST CALLVALUE DUP1 ISZERO PUSH2 0x1F3 JUMPI PUSH1 0x0 DUP1 REVERT JUMPDEST POP PUSH2 0x1FC PUSH2 0x612 JUMP JUMPDEST PUSH1 0x40 MLOAD PUSH2 0x209 SWAP2 SWAP1 PUSH2 0xB31 JUMP JUMPDEST PUSH1 0x40 MLOAD DUP1 SWAP2 SUB SWAP1 RETURN JUMPDEST CALLVALUE DUP1 ISZERO PUSH2 0x21E JUMPI PUSH1 0x0 DUP1 REVERT JUMPDEST POP PUSH2 0x227 PUSH2 0x61F JUMP JUMPDEST PUSH1 0x40 MLOAD PUSH2 0x234 SWAP2 SWAP1 PUSH2 0xEE9 JUMP JUMPDEST PUSH1 0x40 MLOAD DUP1 SWAP2 SUB SWAP1 RETURN JUMPDEST CALLVALUE DUP1 ISZERO PUSH2 0x249 JUMPI PUSH1 0x0 DUP1 REVERT JUMPDEST POP PUSH2 0x264 PUSH1 0x4 DUP1 CALLDATASIZE SUB DUP2 ADD SWAP1 PUSH2 0x25F SWAP2 SWAP1 PUSH2 0xFB9 JUMP JUMPDEST PUSH2 0x636 JUMP JUMPDEST PUSH1 0x40 MLOAD PUSH2 0x272 SWAP3 SWAP2 SWAP1 PUSH2 0x109C JUMP JUMPDEST PUSH1 0x40 MLOAD DUP1 SWAP2 SUB SWAP1 RETURN JUMPDEST PUSH2 0x283 PUSH2 0x6C5 JUMP JUMPDEST STOP JUMPDEST CALLVALUE DUP1 ISZERO PUSH2 0x291 JUMPI PUSH1 0x0 DUP1 REVERT JUMPDEST POP PUSH2 0x29A PUSH2 0x834 JUMP JUMPDEST PUSH1 0x40 MLOAD PUSH2 0x2A7 SWAP2 SWAP1 PUSH2 0xB31 JUMP JUMPDEST PUSH1 0x40 MLOAD DUP1 SWAP2 SUB SWAP1 RETURN JUMPDEST PUSH1 0x0 PUSH32 0x0 SWAP1 POP SWAP1 JUMP JUMPDEST PUSH32 0x0 PUSH20 0xFFFFFFFFFFFFFFFFFFFFFFFFFFFFFFFFFFFFFFFF AND CALLER PUSH20 0xFFFFFFFFFFFFFFFFFFFFFFFFFFFFFFFFFFFFFFFF AND EQ PUSH2 0x38A JUMPI CALLER PUSH32 0x0 PUSH1 0x40 MLOAD PUSH32 0x1CF993F400000000000000000000000000000000000000000000000000000000 DUP2 MSTORE PUSH1 0x4 ADD PUSH2 0x381 SWAP3 SWAP2 SWAP1 PUSH2 0x10CC JUMP JUMPDEST PUSH1 0x40 MLOAD DUP1 SWAP2 SUB SWAP1 REVERT JUMPDEST PUSH2 0x394 DUP3 DUP3 PUSH2 0x840 JUMP JUMPDEST POP POP JUMP JUMPDEST PUSH1 0x0 PUSH1 0x2 SLOAD SWAP1 POP SWAP1 JUMP JUMPDEST PUSH1 0x0 PUSH2 0x3BC PUSH1 0x40 MLOAD DUP1 PUSH1 0x20 ADD PUSH1 0x40 MSTORE DUP1 PUSH1 0x0 DUP2 MSTORE POP PUSH2 0x636 JUMP JUMPDEST POP SWAP1 POP DUP1 PUSH2 0x42B JUMPI SELFBALANCE PUSH1 0x0 DUP1 SLOAD SWAP1 POP PUSH1 0x1 PUSH1 0x14 SWAP1 SLOAD SWAP1 PUSH2 0x100 EXP SWAP1 DIV PUSH1 0xFF AND PUSH1 0x1 DUP2 GT ISZERO PUSH2 0x3ED JUMPI PUSH2 0x3EC PUSH2 0xE72 JUMP JUMPDEST JUMPDEST PUSH1 0x40 MLOAD PUSH32 0x3C96B78A00000000000000000000000000000000000000000000000000000000 DUP2 MSTORE PUSH1 0x4 ADD PUSH2 0x422 SWAP4 SWAP3 SWAP2 SWAP1 PUSH2 0x10F5 JUMP JUMPDEST PUSH1 0x40 MLOAD DUP1 SWAP2 SUB SWAP1 REVERT JUMPDEST PUSH1 0x1 DUP1 PUSH1 0x14 PUSH2 0x100 EXP DUP2 SLOAD DUP2 PUSH1 0xFF MUL NOT AND SWAP1 DUP4 PUSH1 0x1 DUP2 GT ISZERO PUSH2 0x450 JUMPI PUSH2 0x44F PUSH2 0xE72 JUMP JUMPDEST JUMPDEST MUL OR SWAP1 SSTORE POP PUSH1 0x0 PUSH32 0x0 PUSH20 0xFFFFFFFFFFFFFFFFFFFFFFFFFFFFFFFFFFFFFFFF AND PUSH4 0x5D3B1D30 PUSH32 0x0 PUSH32 0x0 PUSH1 0x3 PUSH32 0x0 PUSH1 0x1 PUSH1 0x40 MLOAD DUP7 PUSH4 0xFFFFFFFF AND PUSH1 0xE0 SHL DUP2 MSTORE PUSH1 0x4 ADD PUSH2 0x51A SWAP6 SWAP5 SWAP4 SWAP3 SWAP2 SWAP1 PUSH2 0x11A4 JUMP JUMPDEST PUSH1 0x20 PUSH1 0x40 MLOAD DUP1 DUP4 SUB DUP2 PUSH1 0x0 DUP8 GAS CALL ISZERO DUP1 ISZERO PUSH2 0x539 JUMPI RETURNDATASIZE PUSH1 0x0 DUP1 RETURNDATACOPY RETURNDATASIZE PUSH1 0x0 REVERT JUMPDEST POP POP POP POP PUSH1 0x40 MLOAD RETURNDATASIZE PUSH1 0x1F NOT PUSH1 0x1F DUP3 ADD AND DUP3 ADD DUP1 PUSH1 0x40 MSTORE POP DUP2 ADD SWAP1 PUSH2 0x55D SWAP2 SWAP1 PUSH2 0x120C JUMP JUMPDEST SWAP1 POP DUP1 PUSH32 0xEBF56642252004C18A776F30D528E7A0CE8C5DB14B6596FB6550F630C8A24C6C PUSH1 0x40 MLOAD PUSH1 0x40 MLOAD DUP1 SWAP2 SUB SWAP1 LOG2 POP POP POP POP JUMP JUMPDEST PUSH1 0x0 DUP1 DUP3 DUP2 SLOAD DUP2 LT PUSH2 0x5A7 JUMPI PUSH2 0x5A6 PUSH2 0x1239 JUMP JUMPDEST JUMPDEST SWAP1 PUSH1 0x0 MSTORE PUSH1 0x20 PUSH1 0x0 KECCAK256 ADD PUSH1 0x0 SWAP1 SLOAD SWAP1 PUSH2 0x100 EXP SWAP1 DIV PUSH20 0xFFFFFFFFFFFFFFFFFFFFFFFFFFFFFFFFFFFFFFFF AND SWAP1 POP SWAP2 SWAP1 POP JUMP JUMPDEST PUSH1 0x0 PUSH1 0x1 PUSH1 0x0 SWAP1 SLOAD SWAP1 PUSH2 0x100 EXP SWAP1 DIV PUSH20 0xFFFFFFFFFFFFFFFFFFFFFFFFFFFFFFFFFFFFFFFF AND SWAP1 POP SWAP1 JUMP JUMPDEST PUSH1 0x0 PUSH1 0x1 PUSH4 0xFFFFFFFF AND SWAP1 POP SWAP1 JUMP JUMPDEST PUSH1 0x0 PUSH1 0x3 PUSH2 0xFFFF AND SWAP1 POP SWAP1 JUMP JUMPDEST PUSH1 0x0 PUSH1 0x1 PUSH1 0x14 SWAP1 SLOAD SWAP1 PUSH2 0x100 EXP SWAP1 DIV PUSH1 0xFF AND SWAP1 POP SWAP1 JUMP JUMPDEST PUSH1 0x0 PUSH1 0x60 PUSH1 0x0 PUSH1 0x1 PUSH1 0x14 SWAP1 SLOAD SWAP1 PUSH2 0x100 EXP SWAP1 DIV PUSH1 0xFF AND PUSH1 0x1 DUP2 GT ISZERO PUSH2 0x65E JUMPI PUSH2 0x65D PUSH2 0xE72 JUMP JUMPDEST JUMPDEST PUSH1 0x0 PUSH1 0x1 DUP2 GT ISZERO PUSH2 0x672 JUMPI PUSH2 0x671 PUSH2 0xE72 JUMP JUMPDEST JUMPDEST EQ SWAP1 POP PUSH1 0x0 PUSH1 0x3 SLOAD PUSH1 0x2 SLOAD TIMESTAMP PUSH2 0x688 SWAP2 SWAP1 PUSH2 0x1297 JUMP JUMPDEST GT SWAP1 POP PUSH1 0x0 DUP1 PUSH1 0x0 DUP1 SLOAD SWAP1 POP GT SWAP1 POP PUSH1 0x0 DUP1 SELFBALANCE GT SWAP1 POP DUP4 DUP1 ISZERO PUSH2 0x6A8 JUMPI POP DUP3 JUMPDEST DUP1 ISZERO PUSH2 0x6B1 JUMPI POP DUP2 JUMPDEST DUP1 ISZERO PUSH2 0x6BA JUMPI POP DUP1 JUMPDEST SWAP6 POP POP POP POP POP SWAP2 POP SWAP2 JUMP JUMPDEST PUSH32 0x0 CALLVALUE LT ISZERO PUSH2 0x71F JUMPI PUSH1 0x40 MLOAD PUSH32 0xEC269FD100000000000000000000000000000000000000000000000000000000 DUP2 MSTORE PUSH1 0x4 ADD PUSH1 0x40 MLOAD DUP1 SWAP2 SUB SWAP1 REVERT JUMPDEST PUSH1 0x0 PUSH1 0x1 DUP2 GT ISZERO PUSH2 0x733 JUMPI PUSH2 0x732 PUSH2 0xE72 JUMP JUMPDEST JUMPDEST PUSH1 0x1 PUSH1 0x14 SWAP1 SLOAD SWAP1 PUSH2 0x100 EXP SWAP1 DIV PUSH1 0xFF AND PUSH1 0x1 DUP2 GT ISZERO PUSH2 0x755 JUMPI PUSH2 0x754 PUSH2 0xE72 JUMP JUMPDEST JUMPDEST EQ PUSH2 0x78C JUMPI PUSH1 0x40 MLOAD PUSH32 0xE76BE6FC00000000000000000000000000000000000000000000000000000000 DUP2 MSTORE PUSH1 0x4 ADD PUSH1 0x40 MLOAD DUP1 SWAP2 SUB SWAP1 REVERT JUMPDEST PUSH1 0x0 CALLER SWAP1 DUP1 PUSH1 0x1 DUP2 SLOAD ADD DUP1 DUP3 SSTORE DUP1 SWAP2 POP POP PUSH1 0x1 SWAP1 SUB SWAP1 PUSH1 0x0 MSTORE PUSH1 0x20 PUSH1 0x0 KECCAK256 ADD PUSH1 0x0 SWAP1 SWAP2 SWAP1 SWAP2 SWAP1 SWAP2 PUSH2 0x100 EXP DUP2 SLOAD DUP2 PUSH20 0xFFFFFFFFFFFFFFFFFFFFFFFFFFFFFFFFFFFFFFFF MUL NOT AND SWAP1 DUP4 PUSH20 0xFFFFFFFFFFFFFFFFFFFFFFFFFFFFFFFFFFFFFFFF AND MUL OR SWAP1 SSTORE POP CALLER PUSH20 0xFFFFFFFFFFFFFFFFFFFFFFFFFFFFFFFFFFFFFFFF AND PUSH32 0x1D64FB5BA9F2548C5B98468D58F25B87B9E866AFEE0122E92D9FE722BF85076C PUSH1 0x40 MLOAD PUSH1 0x40 MLOAD DUP1 SWAP2 SUB SWAP1 LOG2 JUMP JUMPDEST PUSH1 0x0 DUP1 DUP1 SLOAD SWAP1 POP SWAP1 POP SWAP1 JUMP JUMPDEST PUSH1 0x0 DUP1 DUP1 SLOAD SWAP1 POP DUP3 PUSH1 0x0 DUP2 MLOAD DUP2 LT PUSH2 0x85B JUMPI PUSH2 0x85A PUSH2 0x1239 JUMP JUMPDEST JUMPDEST PUSH1 0x20 MUL PUSH1 0x20 ADD ADD MLOAD PUSH2 0x86D SWAP2 SWAP1 PUSH2 0x12FA JUMP JUMPDEST SWAP1 POP PUSH1 0x0 DUP1 DUP3 DUP2 SLOAD DUP2 LT PUSH2 0x884 JUMPI PUSH2 0x883 PUSH2 0x1239 JUMP JUMPDEST JUMPDEST SWAP1 PUSH1 0x0 MSTORE PUSH1 0x20 PUSH1 0x0 KECCAK256 ADD PUSH1 0x0 SWAP1 SLOAD SWAP1 PUSH2 0x100 EXP SWAP1 DIV PUSH20 0xFFFFFFFFFFFFFFFFFFFFFFFFFFFFFFFFFFFFFFFF AND SWAP1 POP DUP1 PUSH1 0x1 PUSH1 0x0 PUSH2 0x100 EXP DUP2 SLOAD DUP2 PUSH20 0xFFFFFFFFFFFFFFFFFFFFFFFFFFFFFFFFFFFFFFFF MUL NOT AND SWAP1 DUP4 PUSH20 0xFFFFFFFFFFFFFFFFFFFFFFFFFFFFFFFFFFFFFFFF AND MUL OR SWAP1 SSTORE POP PUSH1 0x0 PUSH1 0x1 PUSH1 0x14 PUSH2 0x100 EXP DUP2 SLOAD DUP2 PUSH1 0xFF MUL NOT AND SWAP1 DUP4 PUSH1 0x1 DUP2 GT ISZERO PUSH2 0x918 JUMPI PUSH2 0x917 PUSH2 0xE72 JUMP JUMPDEST JUMPDEST MUL OR SWAP1 SSTORE POP PUSH1 0x0 DUP2 PUSH20 0xFFFFFFFFFFFFFFFFFFFFFFFFFFFFFFFFFFFFFFFF AND SELFBALANCE PUSH1 0x40 MLOAD PUSH2 0x943 SWAP1 PUSH2 0x135C JUMP JUMPDEST PUSH1 0x0 PUSH1 0x40 MLOAD DUP1 DUP4 SUB DUP2 DUP6 DUP8 GAS CALL SWAP3 POP POP POP RETURNDATASIZE DUP1 PUSH1 0x0 DUP2 EQ PUSH2 0x980 JUMPI PUSH1 0x40 MLOAD SWAP2 POP PUSH1 0x1F NOT PUSH1 0x3F RETURNDATASIZE ADD AND DUP3 ADD PUSH1 0x40 MSTORE RETURNDATASIZE DUP3 MSTORE RETURNDATASIZE PUSH1 0x0 PUSH1 0x20 DUP5 ADD RETURNDATACOPY PUSH2 0x985 JUMP JUMPDEST PUSH1 0x60 SWAP2 POP JUMPDEST POP POP SWAP1 POP DUP1 PUSH2 0x9C0 JUMPI PUSH1 0x40 MLOAD PUSH32 0x61104DE00000000000000000000000000000000000000000000000000000000 DUP2 MSTORE PUSH1 0x4 ADD PUSH1 0x40 MLOAD DUP1 SWAP2 SUB SWAP1 REVERT JUMPDEST DUP2 PUSH20 0xFFFFFFFFFFFFFFFFFFFFFFFFFFFFFFFFFFFFFFFF AND PUSH32 0x5B690EC4A06FE979403046EAEEA5B3CE38524683C3001F662C8B5A829632F7DF PUSH1 0x40 MLOAD PUSH1 0x40 MLOAD DUP1 SWAP2 SUB SWAP1 LOG2 PUSH1 0x0 PUSH8 0xFFFFFFFFFFFFFFFF DUP2 GT ISZERO PUSH2 0xA1E JUMPI PUSH2 0xA1D PUSH2 0xBA2 JUMP JUMPDEST JUMPDEST PUSH1 0x40 MLOAD SWAP1 DUP1 DUP3 MSTORE DUP1 PUSH1 0x20 MUL PUSH1 0x20 ADD DUP3 ADD PUSH1 0x40 MSTORE DUP1 ISZERO PUSH2 0xA4C JUMPI DUP2 PUSH1 0x20 ADD PUSH1 0x20 DUP3 MUL DUP1 CALLDATASIZE DUP4 CALLDATACOPY DUP1 DUP3 ADD SWAP2 POP POP SWAP1 POP JUMPDEST POP PUSH1 0x0 SWAP1 DUP1 MLOAD SWAP1 PUSH1 0x20 ADD SWAP1 PUSH2 0xA62 SWAP3 SWAP2 SWAP1 PUSH2 0xA71 JUMP JUMPDEST POP TIMESTAMP PUSH1 0x2 DUP2 SWAP1 SSTORE POP POP POP POP POP POP JUMP JUMPDEST DUP3 DUP1 SLOAD DUP3 DUP3 SSTORE SWAP1 PUSH1 0x0 MSTORE PUSH1 0x20 PUSH1 0x0 KECCAK256 SWAP1 DUP2 ADD SWAP3 DUP3 ISZERO PUSH2 0xAEA JUMPI SWAP2 PUSH1 0x20 MUL DUP3 ADD JUMPDEST DUP3 DUP2 GT ISZERO PUSH2 0xAE9 JUMPI DUP3 MLOAD DUP3 PUSH1 0x0 PUSH2 0x100 EXP DUP2 SLOAD DUP2 PUSH20 0xFFFFFFFFFFFFFFFFFFFFFFFFFFFFFFFFFFFFFFFF MUL NOT AND SWAP1 DUP4 PUSH20 0xFFFFFFFFFFFFFFFFFFFFFFFFFFFFFFFFFFFFFFFF AND MUL OR SWAP1 SSTORE POP SWAP2 PUSH1 0x20 ADD SWAP2 SWAP1 PUSH1 0x1 ADD SWAP1 PUSH2 0xA91 JUMP JUMPDEST JUMPDEST POP SWAP1 POP PUSH2 0xAF7 SWAP2 SWAP1 PUSH2 0xAFB JUMP JUMPDEST POP SWAP1 JUMP JUMPDEST JUMPDEST DUP1 DUP3 GT ISZERO PUSH2 0xB14 JUMPI PUSH1 0x0 DUP2 PUSH1 0x0 SWAP1 SSTORE POP PUSH1 0x1 ADD PUSH2 0xAFC JUMP JUMPDEST POP SWAP1 JUMP JUMPDEST PUSH1 0x0 DUP2 SWAP1 POP SWAP2 SWAP1 POP JUMP JUMPDEST PUSH2 0xB2B DUP2 PUSH2 0xB18 JUMP JUMPDEST DUP3 MSTORE POP POP JUMP JUMPDEST PUSH1 0x0 PUSH1 0x20 DUP3 ADD SWAP1 POP PUSH2 0xB46 PUSH1 0x0 DUP4 ADD DUP5 PUSH2 0xB22 JUMP JUMPDEST SWAP3 SWAP2 POP POP JUMP JUMPDEST PUSH1 0x0 PUSH1 0x40 MLOAD SWAP1 POP SWAP1 JUMP JUMPDEST PUSH1 0x0 DUP1 REVERT JUMPDEST PUSH1 0x0 DUP1 REVERT JUMPDEST PUSH2 0xB69 DUP2 PUSH2 0xB18 JUMP JUMPDEST DUP2 EQ PUSH2 0xB74 JUMPI PUSH1 0x0 DUP1 REVERT JUMPDEST POP JUMP JUMPDEST PUSH1 0x0 DUP2 CALLDATALOAD SWAP1 POP PUSH2 0xB86 DUP2 PUSH2 0xB60 JUMP JUMPDEST SWAP3 SWAP2 POP POP JUMP JUMPDEST PUSH1 0x0 DUP1 REVERT JUMPDEST PUSH1 0x0 PUSH1 0x1F NOT PUSH1 0x1F DUP4 ADD AND SWAP1 POP SWAP2 SWAP1 POP JUMP JUMPDEST PUSH32 0x4E487B7100000000000000000000000000000000000000000000000000000000 PUSH1 0x0 MSTORE PUSH1 0x41 PUSH1 0x4 MSTORE PUSH1 0x24 PUSH1 0x0 REVERT JUMPDEST PUSH2 0xBDA DUP3 PUSH2 0xB91 JUMP JUMPDEST DUP2 ADD DUP2 DUP2 LT PUSH8 0xFFFFFFFFFFFFFFFF DUP3 GT OR ISZERO PUSH2 0xBF9 JUMPI PUSH2 0xBF8 PUSH2 0xBA2 JUMP JUMPDEST JUMPDEST DUP1 PUSH1 0x40 MSTORE POP POP POP JUMP JUMPDEST PUSH1 0x0 PUSH2 0xC0C PUSH2 0xB4C JUMP JUMPDEST SWAP1 POP PUSH2 0xC18 DUP3 DUP3 PUSH2 0xBD1 JUMP JUMPDEST SWAP2 SWAP1 POP JUMP JUMPDEST PUSH1 0x0 PUSH8 0xFFFFFFFFFFFFFFFF DUP3 GT ISZERO PUSH2 0xC38 JUMPI PUSH2 0xC37 PUSH2 0xBA2 JUMP JUMPDEST JUMPDEST PUSH1 0x20 DUP3 MUL SWAP1 POP PUSH1 0x20 DUP2 ADD SWAP1 POP SWAP2 SWAP1 POP JUMP JUMPDEST PUSH1 0x0 DUP1 REVERT JUMPDEST PUSH1 0x0 PUSH2 0xC61 PUSH2 0xC5C DUP5 PUSH2 0xC1D JUMP JUMPDEST PUSH2 0xC02 JUMP JUMPDEST SWAP1 POP DUP1 DUP4 DUP3 MSTORE PUSH1 0x20 DUP3 ADD SWAP1 POP PUSH1 0x20 DUP5 MUL DUP4 ADD DUP6 DUP2 GT ISZERO PUSH2 0xC84 JUMPI PUSH2 0xC83 PUSH2 0xC49 JUMP JUMPDEST JUMPDEST DUP4 JUMPDEST DUP2 DUP2 LT ISZERO PUSH2 0xCAD JUMPI DUP1 PUSH2 0xC99 DUP9 DUP3 PUSH2 0xB77 JUMP JUMPDEST DUP5 MSTORE PUSH1 0x20 DUP5 ADD SWAP4 POP POP PUSH1 0x20 DUP2 ADD SWAP1 POP PUSH2 0xC86 JUMP JUMPDEST POP POP POP SWAP4 SWAP3 POP POP POP JUMP JUMPDEST PUSH1 0x0 DUP3 PUSH1 0x1F DUP4 ADD SLT PUSH2 0xCCC JUMPI PUSH2 0xCCB PUSH2 0xB8C JUMP JUMPDEST JUMPDEST DUP2 CALLDATALOAD PUSH2 0xCDC DUP5 DUP3 PUSH1 0x20 DUP7 ADD PUSH2 0xC4E JUMP JUMPDEST SWAP2 POP POP SWAP3 SWAP2 POP POP JUMP JUMPDEST PUSH1 0x0 DUP1 PUSH1 0x40 DUP4 DUP6 SUB SLT ISZERO PUSH2 0xCFC JUMPI PUSH2 0xCFB PUSH2 0xB56 JUMP JUMPDEST JUMPDEST PUSH1 0x0 PUSH2 0xD0A DUP6 DUP3 DUP7 ADD PUSH2 0xB77 JUMP JUMPDEST SWAP3 POP POP PUSH1 0x20 DUP4 ADD CALLDATALOAD PUSH8 0xFFFFFFFFFFFFFFFF DUP2 GT ISZERO PUSH2 0xD2B JUMPI PUSH2 0xD2A PUSH2 0xB5B JUMP JUMPDEST JUMPDEST PUSH2 0xD37 DUP6 DUP3 DUP7 ADD PUSH2 0xCB7 JUMP JUMPDEST SWAP2 POP POP SWAP3 POP SWAP3 SWAP1 POP JUMP JUMPDEST PUSH1 0x0 DUP1 REVERT JUMPDEST PUSH1 0x0 DUP1 DUP4 PUSH1 0x1F DUP5 ADD SLT PUSH2 0xD5C JUMPI PUSH2 0xD5B PUSH2 0xB8C JUMP JUMPDEST JUMPDEST DUP3 CALLDATALOAD SWAP1 POP PUSH8 0xFFFFFFFFFFFFFFFF DUP2 GT ISZERO PUSH2 0xD79 JUMPI PUSH2 0xD78 PUSH2 0xD41 JUMP JUMPDEST JUMPDEST PUSH1 0x20 DUP4 ADD SWAP2 POP DUP4 PUSH1 0x1 DUP3 MUL DUP4 ADD GT ISZERO PUSH2 0xD95 JUMPI PUSH2 0xD94 PUSH2 0xC49 JUMP JUMPDEST JUMPDEST SWAP3 POP SWAP3 SWAP1 POP JUMP JUMPDEST PUSH1 0x0 DUP1 PUSH1 0x20 DUP4 DUP6 SUB SLT ISZERO PUSH2 0xDB3 JUMPI PUSH2 0xDB2 PUSH2 0xB56 JUMP JUMPDEST JUMPDEST PUSH1 0x0 DUP4 ADD CALLDATALOAD PUSH8 0xFFFFFFFFFFFFFFFF DUP2 GT ISZERO PUSH2 0xDD1 JUMPI PUSH2 0xDD0 PUSH2 0xB5B JUMP JUMPDEST JUMPDEST PUSH2 0xDDD DUP6 DUP3 DUP7 ADD PUSH2 0xD46 JUMP JUMPDEST SWAP3 POP SWAP3 POP POP SWAP3 POP SWAP3 SWAP1 POP JUMP JUMPDEST PUSH1 0x0 PUSH1 0x20 DUP3 DUP5 SUB SLT ISZERO PUSH2 0xDFF JUMPI PUSH2 0xDFE PUSH2 0xB56 JUMP JUMPDEST JUMPDEST PUSH1 0x0 PUSH2 0xE0D DUP5 DUP3 DUP6 ADD PUSH2 0xB77 JUMP JUMPDEST SWAP2 POP POP SWAP3 SWAP2 POP POP JUMP JUMPDEST PUSH1 0x0 PUSH20 0xFFFFFFFFFFFFFFFFFFFFFFFFFFFFFFFFFFFFFFFF DUP3 AND SWAP1 POP SWAP2 SWAP1 POP JUMP JUMPDEST PUSH1 0x0 PUSH2 0xE41 DUP3 PUSH2 0xE16 JUMP JUMPDEST SWAP1 POP SWAP2 SWAP1 POP JUMP JUMPDEST PUSH2 0xE51 DUP2 PUSH2 0xE36 JUMP JUMPDEST DUP3 MSTORE POP POP JUMP JUMPDEST PUSH1 0x0 PUSH1 0x20 DUP3 ADD SWAP1 POP PUSH2 0xE6C PUSH1 0x0 DUP4 ADD DUP5 PUSH2 0xE48 JUMP JUMPDEST SWAP3 SWAP2 POP POP JUMP JUMPDEST PUSH32 0x4E487B7100000000000000000000000000000000000000000000000000000000 PUSH1 0x0 MSTORE PUSH1 0x21 PUSH1 0x4 MSTORE PUSH1 0x24 PUSH1 0x0 REVERT JUMPDEST PUSH1 0x2 DUP2 LT PUSH2 0xEB2 JUMPI PUSH2 0xEB1 PUSH2 0xE72 JUMP JUMPDEST JUMPDEST POP JUMP JUMPDEST PUSH1 0x0 DUP2 SWAP1 POP PUSH2 0xEC3 DUP3 PUSH2 0xEA1 JUMP JUMPDEST SWAP2 SWAP1 POP JUMP JUMPDEST PUSH1 0x0 PUSH2 0xED3 DUP3 PUSH2 0xEB5 JUMP JUMPDEST SWAP1 POP SWAP2 SWAP1 POP JUMP JUMPDEST PUSH2 0xEE3 DUP2 PUSH2 0xEC8 JUMP JUMPDEST DUP3 MSTORE POP POP JUMP JUMPDEST PUSH1 0x0 PUSH1 0x20 DUP3 ADD SWAP1 POP PUSH2 0xEFE PUSH1 0x0 DUP4 ADD DUP5 PUSH2 0xEDA JUMP JUMPDEST SWAP3 SWAP2 POP POP JUMP JUMPDEST PUSH1 0x0 DUP1 REVERT JUMPDEST PUSH1 0x0 PUSH8 0xFFFFFFFFFFFFFFFF DUP3 GT ISZERO PUSH2 0xF24 JUMPI PUSH2 0xF23 PUSH2 0xBA2 JUMP JUMPDEST JUMPDEST PUSH2 0xF2D DUP3 PUSH2 0xB91 JUMP JUMPDEST SWAP1 POP PUSH1 0x20 DUP2 ADD SWAP1 POP SWAP2 SWAP1 POP JUMP JUMPDEST DUP3 DUP2 DUP4 CALLDATACOPY PUSH1 0x0 DUP4 DUP4 ADD MSTORE POP POP POP JUMP JUMPDEST PUSH1 0x0 PUSH2 0xF5C PUSH2 0xF57 DUP5 PUSH2 0xF09 JUMP JUMPDEST PUSH2 0xC02 JUMP JUMPDEST SWAP1 POP DUP3 DUP2 MSTORE PUSH1 0x20 DUP2 ADD DUP5 DUP5 DUP5 ADD GT ISZERO PUSH2 0xF78 JUMPI PUSH2 0xF77 PUSH2 0xF04 JUMP JUMPDEST JUMPDEST PUSH2 0xF83 DUP5 DUP3 DUP6 PUSH2 0xF3A JUMP JUMPDEST POP SWAP4 SWAP3 POP POP POP JUMP JUMPDEST PUSH1 0x0 DUP3 PUSH1 0x1F DUP4 ADD SLT PUSH2 0xFA0 JUMPI PUSH2 0xF9F PUSH2 0xB8C JUMP JUMPDEST JUMPDEST DUP2 CALLDATALOAD PUSH2 0xFB0 DUP5 DUP3 PUSH1 0x20 DUP7 ADD PUSH2 0xF49 JUMP JUMPDEST SWAP2 POP POP SWAP3 SWAP2 POP POP JUMP JUMPDEST PUSH1 0x0 PUSH1 0x20 DUP3 DUP5 SUB SLT ISZERO PUSH2 0xFCF JUMPI PUSH2 0xFCE PUSH2 0xB56 JUMP JUMPDEST JUMPDEST PUSH1 0x0 DUP3 ADD CALLDATALOAD PUSH8 0xFFFFFFFFFFFFFFFF DUP2 GT ISZERO PUSH2 0xFED JUMPI PUSH2 0xFEC PUSH2 0xB5B JUMP JUMPDEST JUMPDEST PUSH2 0xFF9 DUP5 DUP3 DUP6 ADD PUSH2 0xF8B JUMP JUMPDEST SWAP2 POP POP SWAP3 SWAP2 POP POP JUMP JUMPDEST PUSH1 0x0 DUP2 ISZERO ISZERO SWAP1 POP SWAP2 SWAP1 POP JUMP JUMPDEST PUSH2 0x1017 DUP2 PUSH2 0x1002 JUMP JUMPDEST DUP3 MSTORE POP POP JUMP JUMPDEST PUSH1 0x0 DUP2 MLOAD SWAP1 POP SWAP2 SWAP1 POP JUMP JUMPDEST PUSH1 0x0 DUP3 DUP3 MSTORE PUSH1 0x20 DUP3 ADD SWAP1 POP SWAP3 SWAP2 POP POP JUMP JUMPDEST PUSH1 0x0 JUMPDEST DUP4 DUP2 LT ISZERO PUSH2 0x1057 JUMPI DUP1 DUP3 ADD MLOAD DUP2 DUP5 ADD MSTORE PUSH1 0x20 DUP2 ADD SWAP1 POP PUSH2 0x103C JUMP JUMPDEST PUSH1 0x0 DUP5 DUP5 ADD MSTORE POP POP POP POP JUMP JUMPDEST PUSH1 0x0 PUSH2 0x106E DUP3 PUSH2 0x101D JUMP JUMPDEST PUSH2 0x1078 DUP2 DUP6 PUSH2 0x1028 JUMP JUMPDEST SWAP4 POP PUSH2 0x1088 DUP2 DUP6 PUSH1 0x20 DUP7 ADD PUSH2 0x1039 JUMP JUMPDEST PUSH2 0x1091 DUP2 PUSH2 0xB91 JUMP JUMPDEST DUP5 ADD SWAP2 POP POP SWAP3 SWAP2 POP POP JUMP JUMPDEST PUSH1 0x0 PUSH1 0x40 DUP3 ADD SWAP1 POP PUSH2 0x10B1 PUSH1 0x0 DUP4 ADD DUP6 PUSH2 0x100E JUMP JUMPDEST DUP2 DUP2 SUB PUSH1 0x20 DUP4 ADD MSTORE PUSH2 0x10C3 DUP2 DUP5 PUSH2 0x1063 JUMP JUMPDEST SWAP1 POP SWAP4 SWAP3 POP POP POP JUMP JUMPDEST PUSH1 0x0 PUSH1 0x40 DUP3 ADD SWAP1 POP PUSH2 0x10E1 PUSH1 0x0 DUP4 ADD DUP6 PUSH2 0xE48 JUMP JUMPDEST PUSH2 0x10EE PUSH1 0x20 DUP4 ADD DUP5 PUSH2 0xE48 JUMP JUMPDEST SWAP4 SWAP3 POP POP POP JUMP JUMPDEST PUSH1 0x0 PUSH1 0x60 DUP3 ADD SWAP1 POP PUSH2 0x110A PUSH1 0x0 DUP4 ADD DUP7 PUSH2 0xB22 JUMP JUMPDEST PUSH2 0x1117 PUSH1 0x20 DUP4 ADD DUP6 PUSH2 0xB22 JUMP JUMPDEST PUSH2 0x1124 PUSH1 0x40 DUP4 ADD DUP5 PUSH2 0xB22 JUMP JUMPDEST SWAP5 SWAP4 POP POP POP POP JUMP JUMPDEST PUSH1 0x0 DUP2 SWAP1 POP SWAP2 SWAP1 POP JUMP JUMPDEST PUSH2 0x113F DUP2 PUSH2 0x112C JUMP JUMPDEST DUP3 MSTORE POP POP JUMP JUMPDEST PUSH1 0x0 PUSH8 0xFFFFFFFFFFFFFFFF DUP3 AND SWAP1 POP SWAP2 SWAP1 POP JUMP JUMPDEST PUSH2 0x1162 DUP2 PUSH2 0x1145 JUMP JUMPDEST DUP3 MSTORE POP POP JUMP JUMPDEST PUSH1 0x0 PUSH2 0xFFFF DUP3 AND SWAP1 POP SWAP2 SWAP1 POP JUMP JUMPDEST PUSH2 0x117F DUP2 PUSH2 0x1168 JUMP JUMPDEST DUP3 MSTORE POP POP JUMP JUMPDEST PUSH1 0x0 PUSH4 0xFFFFFFFF DUP3 AND SWAP1 POP SWAP2 SWAP1 POP JUMP JUMPDEST PUSH2 0x119E DUP2 PUSH2 0x1185 JUMP JUMPDEST DUP3 MSTORE POP POP JUMP JUMPDEST PUSH1 0x0 PUSH1 0xA0 DUP3 ADD SWAP1 POP PUSH2 0x11B9 PUSH1 0x0 DUP4 ADD DUP9 PUSH2 0x1136 JUMP JUMPDEST PUSH2 0x11C6 PUSH1 0x20 DUP4 ADD DUP8 PUSH2 0x1159 JUMP JUMPDEST PUSH2 0x11D3 PUSH1 0x40 DUP4 ADD DUP7 PUSH2 0x1176 JUMP JUMPDEST PUSH2 0x11E0 PUSH1 0x60 DUP4 ADD DUP6 PUSH2 0x1195 JUMP JUMPDEST PUSH2 0x11ED PUSH1 0x80 DUP4 ADD DUP5 PUSH2 0x1195 JUMP JUMPDEST SWAP7 SWAP6 POP POP POP POP POP POP JUMP JUMPDEST PUSH1 0x0 DUP2 MLOAD SWAP1 POP PUSH2 0x1206 DUP2 PUSH2 0xB60 JUMP JUMPDEST SWAP3 SWAP2 POP POP JUMP JUMPDEST PUSH1 0x0 PUSH1 0x20 DUP3 DUP5 SUB SLT ISZERO PUSH2 0x1222 JUMPI PUSH2 0x1221 PUSH2 0xB56 JUMP JUMPDEST JUMPDEST PUSH1 0x0 PUSH2 0x1230 DUP5 DUP3 DUP6 ADD PUSH2 0x11F7 JUMP JUMPDEST SWAP2 POP POP SWAP3 SWAP2 POP POP JUMP JUMPDEST PUSH32 0x4E487B7100000000000000000000000000000000000000000000000000000000 PUSH1 0x0 MSTORE PUSH1 0x32 PUSH1 0x4 MSTORE PUSH1 0x24 PUSH1 0x0 REVERT JUMPDEST PUSH32 0x4E487B7100000000000000000000000000000000000000000000000000000000 PUSH1 0x0 MSTORE PUSH1 0x11 PUSH1 0x4 MSTORE PUSH1 0x24 PUSH1 0x0 REVERT JUMPDEST PUSH1 0x0 PUSH2 0x12A2 DUP3 PUSH2 0xB18 JUMP JUMPDEST SWAP2 POP PUSH2 0x12AD DUP4 PUSH2 0xB18 JUMP JUMPDEST SWAP3 POP DUP3 DUP3 SUB SWAP1 POP DUP2 DUP2 GT ISZERO PUSH2 0x12C5 JUMPI PUSH2 0x12C4 PUSH2 0x1268 JUMP JUMPDEST JUMPDEST SWAP3 SWAP2 POP POP JUMP JUMPDEST PUSH32 0x4E487B7100000000000000000000000000000000000000000000000000000000 PUSH1 0x0 MSTORE PUSH1 0x12 PUSH1 0x4 MSTORE PUSH1 0x24 PUSH1 0x0 REVERT JUMPDEST PUSH1 0x0 PUSH2 0x1305 DUP3 PUSH2 0xB18 JUMP JUMPDEST SWAP2 POP PUSH2 0x1310 DUP4 PUSH2 0xB18 JUMP JUMPDEST SWAP3 POP DUP3 PUSH2 0x1320 JUMPI PUSH2 0x131F PUSH2 0x12CB JUMP JUMPDEST JUMPDEST DUP3 DUP3 MOD SWAP1 POP SWAP3 SWAP2 POP POP JUMP JUMPDEST PUSH1 0x0 DUP2 SWAP1 POP SWAP3 SWAP2 POP POP JUMP JUMPDEST POP JUMP JUMPDEST PUSH1 0x0 PUSH2 0x1346 PUSH1 0x0 DUP4 PUSH2 0x132B JUMP JUMPDEST SWAP2 POP PUSH2 0x1351 DUP3 PUSH2 0x1336 JUMP JUMPDEST PUSH1 0x0 DUP3 ADD SWAP1 POP SWAP2 SWAP1 POP JUMP JUMPDEST PUSH1 0x0 PUSH2 0x1367 DUP3 PUSH2 0x1339 JUMP JUMPDEST SWAP2 POP DUP2 SWAP1 POP SWAP2 SWAP1 POP JUMP INVALID LOG2 PUSH5 0x6970667358 0x22 SLT KECCAK256 BASEFEE SMOD 0xB3 0xE6 SIGNEXTEND SWAP14 GAS SELFBALANCE SLT LOG2 SAR SAR 0xE1 DUP4 SGT 0x49 RETURNDATASIZE SWAP9 SWAP3 0xE4 LOG0 PUSH28 0x6040FE91CC0DE65422F264736F6C6343000812003300000000000000 "},"gasEstimates":{"creation":{"codeDepositCost":"1006200","executionCost":"infinite","totalCost":"infinite"},"external":{"checkUpkeep(bytes)":"infinite","enterLottery()":"infinite","getEntranceFee()":"infinite","getLatestTimeStamp()":"2482","getLotteryState()":"2662","getNumWords()":"343","getNumberOfPlayers()":"2555","getPlayers(uint256)":"5056","getRecentWinner()":"2633","getRequestConfirmations()":"365","performUpkeep(bytes)":"infinite","rawFulfillRandomWords(uint256,uint256[])":"infinite"},"internal":{"fulfillRandomWords(uint256,uint256[] memory)":"infinite"}},"methodIdentifiers":{"checkUpkeep(bytes)":"6e04ff0d","enterLottery()":"c1af5785","getEntranceFee()":"09bc33a7","getLatestTimeStamp()":"320229eb","getLotteryState()":"6b68c03c","getNumWords()":"53a2c19a","getNumberOfPlayers()":"fd6673f5","getPlayers(uint256)":"460e2049","getRecentWinner()":"473f1ddc","getRequestConfirmations()":"5f1b0fd8","performUpkeep(bytes)":"4585e33b","rawFulfillRandomWords(uint256,uint256[])":"1fe543e3"}},"storageLayout":{"storage":[{"astId":208,"contract":"contracts/lottery.sol:Lottery","label":"s_players","offset":0,"slot":"0","type":"t_array(t_address_payable)dyn_storage"},{"astId":225,"contract":"contracts/lottery.sol:Lottery","label":"s_recentWinner","offset":0,"slot":"1","type":"t_address"},{"astId":228,"contract":"contracts/lottery.sol:Lottery","label":"s_lotteryState","offset":20,"slot":"1","type":"t_enum(LotteryState)203"},{"astId":230,"contract":"contracts/lottery.sol:Lottery","label":"s_lastTimeStamp","offset":0,"slot":"2","type":"t_uint256"},{"astId":232,"contract":"contracts/lottery.sol:Lottery","label":"i_interval","offset":0,"slot":"3","type":"t_uint256"}],"types":{"t_address":{"encoding":"inplace","label":"address","numberOfBytes":"20"},"t_address_payable":{"encoding":"inplace","label":"address payable","numberOfBytes":"20"},"t_array(t_address_payable)dyn_storage":{"base":"t_address_payable","encoding":"dynamic_array","label":"address payable[]","numberOfBytes":"32"},"t_enum(LotteryState)203":{"encoding":"inplace","label":"enum Lottery.LotteryState","numberOfBytes":"1"},"t_uint256":{"encoding":"inplace","label":"uint256","numberOfBytes":"32"}}},"userdoc":{"kind":"user","methods":{},"notice":"A contract for creating an untamperable decentralised smart contract","version":1}}}}