{
  "address": "0xCf7Ed3AccA5a467e9e704C703E8D87F634fB0Fc9",
  "abi": [
    {
      "inputs": [
        {
          "internalType": "address",
          "name": "vrfCoordinatorV2",
          "type": "address"
        },
        {
          "internalType": "uint256",
          "name": "entranceFee",
          "type": "uint256"
        },
        {
          "internalType": "bytes32",
          "name": "gasLane",
          "type": "bytes32"
        },
        {
          "internalType": "uint64",
          "name": "subscriptionId",
          "type": "uint64"
        },
        {
          "internalType": "uint32",
          "name": "callbackGasLimit",
          "type": "uint32"
        },
        {
          "internalType": "uint256",
          "name": "interval",
          "type": "uint256"
        }
      ],
      "stateMutability": "nonpayable",
      "type": "constructor"
    },
    {
      "inputs": [],
      "name": "Lottery__NotEnoughETHEntered",
      "type": "error"
    },
    {
      "inputs": [],
      "name": "Lottery__NotOpen",
      "type": "error"
    },
    {
      "inputs": [],
      "name": "Lottery__WinnerTransferFailed",
      "type": "error"
    },
    {
      "inputs": [
        {
          "internalType": "uint256",
          "name": "currentBalance",
          "type": "uint256"
        },
        {
          "internalType": "uint256",
          "name": "numPlayers",
          "type": "uint256"
        },
        {
          "internalType": "uint256",
          "name": "lotteryState",
          "type": "uint256"
        },
        {
          "internalType": "uint256",
          "name": "interval",
          "type": "uint256"
        }
      ],
      "name": "Lottery__checkUpkeepFalse",
      "type": "error"
    },
    {
      "inputs": [
        {
          "internalType": "address",
          "name": "have",
          "type": "address"
        },
        {
          "internalType": "address",
          "name": "want",
          "type": "address"
        }
      ],
      "name": "OnlyCoordinatorCanFulfill",
      "type": "error"
    },
    {
      "anonymous": false,
      "inputs": [
        {
          "indexed": true,
          "internalType": "address",
          "name": "player",
          "type": "address"
        }
      ],
      "name": "LotteryEnter",
      "type": "event"
    },
    {
      "anonymous": false,
      "inputs": [
        {
          "indexed": true,
          "internalType": "uint256",
          "name": "requestId",
          "type": "uint256"
        }
      ],
      "name": "RequestedLotteryWinner",
      "type": "event"
    },
    {
      "anonymous": false,
      "inputs": [
        {
          "indexed": true,
          "internalType": "address",
          "name": "winner",
          "type": "address"
        }
      ],
      "name": "WinnerPicked",
      "type": "event"
    },
    {
      "inputs": [
        {
          "internalType": "bytes",
          "name": "",
          "type": "bytes"
        }
      ],
      "name": "checkUpkeep",
      "outputs": [
        {
          "internalType": "bool",
          "name": "upkeepNeeded",
          "type": "bool"
        },
        {
          "internalType": "bytes",
          "name": "",
          "type": "bytes"
        }
      ],
      "stateMutability": "nonpayable",
      "type": "function"
    },
    {
      "inputs": [],
      "name": "enterLottery",
      "outputs": [],
      "stateMutability": "payable",
      "type": "function"
    },
    {
      "inputs": [],
      "name": "getEntranceFee",
      "outputs": [
        {
          "internalType": "uint256",
          "name": "",
          "type": "uint256"
        }
      ],
      "stateMutability": "view",
      "type": "function"
    },
    {
      "inputs": [],
      "name": "getInterval",
      "outputs": [
        {
          "internalType": "uint256",
          "name": "",
          "type": "uint256"
        }
      ],
      "stateMutability": "view",
      "type": "function"
    },
    {
      "inputs": [],
      "name": "getLatestTimeStamp",
      "outputs": [
        {
          "internalType": "uint256",
          "name": "",
          "type": "uint256"
        }
      ],
      "stateMutability": "view",
      "type": "function"
    },
    {
      "inputs": [],
      "name": "getLotteryState",
      "outputs": [
        {
          "internalType": "enum Lottery.LotteryState",
          "name": "",
          "type": "uint8"
        }
      ],
      "stateMutability": "view",
      "type": "function"
    },
    {
      "inputs": [],
      "name": "getNumWords",
      "outputs": [
        {
          "internalType": "uint256",
          "name": "",
          "type": "uint256"
        }
      ],
      "stateMutability": "pure",
      "type": "function"
    },
    {
      "inputs": [],
      "name": "getNumberOfPlayers",
      "outputs": [
        {
          "internalType": "uint256",
          "name": "",
          "type": "uint256"
        }
      ],
      "stateMutability": "view",
      "type": "function"
    },
    {
      "inputs": [
        {
          "internalType": "uint256",
          "name": "index",
          "type": "uint256"
        }
      ],
      "name": "getPlayers",
      "outputs": [
        {
          "internalType": "address",
          "name": "",
          "type": "address"
        }
      ],
      "stateMutability": "view",
      "type": "function"
    },
    {
      "inputs": [],
      "name": "getRecentWinner",
      "outputs": [
        {
          "internalType": "address",
          "name": "",
          "type": "address"
        }
      ],
      "stateMutability": "view",
      "type": "function"
    },
    {
      "inputs": [],
      "name": "getRequestConfirmations",
      "outputs": [
        {
          "internalType": "uint256",
          "name": "",
          "type": "uint256"
        }
      ],
      "stateMutability": "pure",
      "type": "function"
    },
    {
      "inputs": [
        {
          "internalType": "bytes",
          "name": "",
          "type": "bytes"
        }
      ],
      "name": "performUpkeep",
      "outputs": [],
      "stateMutability": "nonpayable",
      "type": "function"
    },
    {
      "inputs": [
        {
          "internalType": "uint256",
          "name": "requestId",
          "type": "uint256"
        },
        {
          "internalType": "uint256[]",
          "name": "randomWords",
          "type": "uint256[]"
        }
      ],
      "name": "rawFulfillRandomWords",
      "outputs": [],
      "stateMutability": "nonpayable",
      "type": "function"
    }
  ],
  "transactionHash": "0xbb31fc1491fe02de04f0385eef54829ec8a19a2ea2b7b8268932f5947518cd7a",
  "args": [
    "0x5FbDB2315678afecb367f032d93F642f64180aa3",
    "10000000000000000",
    "0x474e34a077df58807dbe9c96d3c009b23b3c6d0cce433e59bbf5b34f823bc56c",
    "1",
    "500000",
    "30"
  ],
  "numDeployments": 1,
  "solcInputHash": "cfed2e55ca7255da1136f6578e713f76",
  "bytecode": "0x6101606040523480156200001257600080fd5b506040516200183938038062001839833981810160405281019062000038919062000294565b858073ffffffffffffffffffffffffffffffffffffffff1660808173ffffffffffffffffffffffffffffffffffffffff1681525050508460a081815250508573ffffffffffffffffffffffffffffffffffffffff1660c08173ffffffffffffffffffffffffffffffffffffffff16815250508360e081815250508267ffffffffffffffff166101008167ffffffffffffffff16815250508163ffffffff166101208163ffffffff16815250506000600160146101000a81548160ff021916908360018111156200010d576200010c62000330565b5b0217905550426002819055508061014081815250505050505050506200035f565b600080fd5b600073ffffffffffffffffffffffffffffffffffffffff82169050919050565b6000620001608262000133565b9050919050565b620001728162000153565b81146200017e57600080fd5b50565b600081519050620001928162000167565b92915050565b6000819050919050565b620001ad8162000198565b8114620001b957600080fd5b50565b600081519050620001cd81620001a2565b92915050565b6000819050919050565b620001e881620001d3565b8114620001f457600080fd5b50565b6000815190506200020881620001dd565b92915050565b600067ffffffffffffffff82169050919050565b6200022d816200020e565b81146200023957600080fd5b50565b6000815190506200024d8162000222565b92915050565b600063ffffffff82169050919050565b6200026e8162000253565b81146200027a57600080fd5b50565b6000815190506200028e8162000263565b92915050565b60008060008060008060c08789031215620002b457620002b36200012e565b5b6000620002c489828a0162000181565b9650506020620002d789828a01620001bc565b9550506040620002ea89828a01620001f7565b9450506060620002fd89828a016200023c565b93505060806200031089828a016200027d565b92505060a06200032389828a01620001bc565b9150509295509295509295565b7f4e487b7100000000000000000000000000000000000000000000000000000000600052602160045260246000fd5b60805160a05160c05160e051610100516101205161014051611463620003d660003960008181610435015281816106e1015261074f015260006105410152600061051e015260006104fd015260006104c10152600081816102fa0152610775015260008181610320015261037401526114636000f3fe6080604052600436106100c25760003560e01c806353a2c19a1161007f5780636e04ff0d116100595780636e04ff0d1461025857806391ad27b414610296578063c1af5785146102c1578063fd6673f5146102cb576100c2565b806353a2c19a146101d75780635f1b0fd8146102025780636b68c03c1461022d576100c2565b806309bc33a7146100c75780631fe543e3146100f2578063320229eb1461011b5780634585e33b14610146578063460e20491461016f578063473f1ddc146101ac575b600080fd5b3480156100d357600080fd5b506100dc6102f6565b6040516100e99190610bdf565b60405180910390f35b3480156100fe57600080fd5b5061011960048036038101906101149190610d93565b61031e565b005b34801561012757600080fd5b506101306103de565b60405161013d9190610bdf565b60405180910390f35b34801561015257600080fd5b5061016d60048036038101906101689190610e4a565b6103e8565b005b34801561017b57600080fd5b5061019660048036038101906101919190610e97565b6105fa565b6040516101a39190610f05565b60405180910390f35b3480156101b857600080fd5b506101c1610641565b6040516101ce9190610f05565b60405180910390f35b3480156101e357600080fd5b506101ec61066b565b6040516101f99190610bdf565b60405180910390f35b34801561020e57600080fd5b5061021761067a565b6040516102249190610bdf565b60405180910390f35b34801561023957600080fd5b50610242610687565b60405161024f9190610f97565b60405180910390f35b34801561026457600080fd5b5061027f600480360381019061027a9190611067565b61069e565b60405161028d92919061114a565b60405180910390f35b3480156102a257600080fd5b506102ab61074b565b6040516102b89190610bdf565b60405180910390f35b6102c9610773565b005b3480156102d757600080fd5b506102e06108e2565b6040516102ed9190610bdf565b60405180910390f35b60007f0000000000000000000000000000000000000000000000000000000000000000905090565b7f000000000000000000000000000000000000000000000000000000000000000073ffffffffffffffffffffffffffffffffffffffff163373ffffffffffffffffffffffffffffffffffffffff16146103d057337f00000000000000000000000000000000000000000000000000000000000000006040517f1cf993f40000000000000000000000000000000000000000000000000000000081526004016103c792919061117a565b60405180910390fd5b6103da82826108ee565b5050565b6000600254905090565b60006104026040518060200160405280600081525061069e565b509050806104935747600080549050600160149054906101000a900460ff16600181111561043357610432610f20565b5b7f00000000000000000000000000000000000000000000000000000000000000006040517f09e1012e00000000000000000000000000000000000000000000000000000000815260040161048a94939291906111a3565b60405180910390fd5b60018060146101000a81548160ff021916908360018111156104b8576104b7610f20565b5b021790555060007f000000000000000000000000000000000000000000000000000000000000000073ffffffffffffffffffffffffffffffffffffffff16635d3b1d307f00000000000000000000000000000000000000000000000000000000000000007f000000000000000000000000000000000000000000000000000000000000000060037f000000000000000000000000000000000000000000000000000000000000000060016040518663ffffffff1660e01b8152600401610582959493929190611260565b6020604051808303816000875af11580156105a1573d6000803e3d6000fd5b505050506040513d601f19601f820116820180604052508101906105c591906112c8565b9050807febf56642252004c18a776f30d528e7a0ce8c5db14b6596fb6550f630c8a24c6c60405160405180910390a250505050565b600080828154811061060f5761060e6112f5565b5b9060005260206000200160009054906101000a900473ffffffffffffffffffffffffffffffffffffffff169050919050565b6000600160009054906101000a900473ffffffffffffffffffffffffffffffffffffffff16905090565b6000600163ffffffff16905090565b6000600361ffff16905090565b6000600160149054906101000a900460ff16905090565b600060606000600160149054906101000a900460ff1660018111156106c6576106c5610f20565b5b600060018111156106da576106d9610f20565b5b14905060007f00000000000000000000000000000000000000000000000000000000000000006002544261070e9190611353565b1190506000806000805490501190506000804711905083801561072e5750825b80156107375750815b80156107405750805b955050505050915091565b60007f0000000000000000000000000000000000000000000000000000000000000000905090565b7f00000000000000000000000000000000000000000000000000000000000000003410156107cd576040517fec269fd100000000000000000000000000000000000000000000000000000000815260040160405180910390fd5b600060018111156107e1576107e0610f20565b5b600160149054906101000a900460ff16600181111561080357610802610f20565b5b1461083a576040517fe76be6fc00000000000000000000000000000000000000000000000000000000815260040160405180910390fd5b6000339080600181540180825580915050600190039060005260206000200160009091909190916101000a81548173ffffffffffffffffffffffffffffffffffffffff021916908373ffffffffffffffffffffffffffffffffffffffff1602179055503373ffffffffffffffffffffffffffffffffffffffff167f1d64fb5ba9f2548c5b98468d58f25b87b9e866afee0122e92d9fe722bf85076c60405160405180910390a2565b60008080549050905090565b6000808054905082600081518110610909576109086112f5565b5b602002602001015161091b91906113b6565b90506000808281548110610932576109316112f5565b5b9060005260206000200160009054906101000a900473ffffffffffffffffffffffffffffffffffffffff16905080600160006101000a81548173ffffffffffffffffffffffffffffffffffffffff021916908373ffffffffffffffffffffffffffffffffffffffff1602179055506000600160146101000a81548160ff021916908360018111156109c6576109c5610f20565b5b021790555060008173ffffffffffffffffffffffffffffffffffffffff16476040516109f190611418565b60006040518083038185875af1925050503d8060008114610a2e576040519150601f19603f3d011682016040523d82523d6000602084013e610a33565b606091505b5050905080610a6e576040517f061104de00000000000000000000000000000000000000000000000000000000815260040160405180910390fd5b8173ffffffffffffffffffffffffffffffffffffffff167f5b690ec4a06fe979403046eaeea5b3ce38524683c3001f662c8b5a829632f7df60405160405180910390a2600067ffffffffffffffff811115610acc57610acb610c50565b5b604051908082528060200260200182016040528015610afa5781602001602082028036833780820191505090505b5060009080519060200190610b10929190610b1f565b50426002819055505050505050565b828054828255906000526020600020908101928215610b98579160200282015b82811115610b975782518260006101000a81548173ffffffffffffffffffffffffffffffffffffffff021916908373ffffffffffffffffffffffffffffffffffffffff16021790555091602001919060010190610b3f565b5b509050610ba59190610ba9565b5090565b5b80821115610bc2576000816000905550600101610baa565b5090565b6000819050919050565b610bd981610bc6565b82525050565b6000602082019050610bf46000830184610bd0565b92915050565b6000604051905090565b600080fd5b600080fd5b610c1781610bc6565b8114610c2257600080fd5b50565b600081359050610c3481610c0e565b92915050565b600080fd5b6000601f19601f8301169050919050565b7f4e487b7100000000000000000000000000000000000000000000000000000000600052604160045260246000fd5b610c8882610c3f565b810181811067ffffffffffffffff82111715610ca757610ca6610c50565b5b80604052505050565b6000610cba610bfa565b9050610cc68282610c7f565b919050565b600067ffffffffffffffff821115610ce657610ce5610c50565b5b602082029050602081019050919050565b600080fd5b6000610d0f610d0a84610ccb565b610cb0565b90508083825260208201905060208402830185811115610d3257610d31610cf7565b5b835b81811015610d5b5780610d478882610c25565b845260208401935050602081019050610d34565b5050509392505050565b600082601f830112610d7a57610d79610c3a565b5b8135610d8a848260208601610cfc565b91505092915050565b60008060408385031215610daa57610da9610c04565b5b6000610db885828601610c25565b925050602083013567ffffffffffffffff811115610dd957610dd8610c09565b5b610de585828601610d65565b9150509250929050565b600080fd5b60008083601f840112610e0a57610e09610c3a565b5b8235905067ffffffffffffffff811115610e2757610e26610def565b5b602083019150836001820283011115610e4357610e42610cf7565b5b9250929050565b60008060208385031215610e6157610e60610c04565b5b600083013567ffffffffffffffff811115610e7f57610e7e610c09565b5b610e8b85828601610df4565b92509250509250929050565b600060208284031215610ead57610eac610c04565b5b6000610ebb84828501610c25565b91505092915050565b600073ffffffffffffffffffffffffffffffffffffffff82169050919050565b6000610eef82610ec4565b9050919050565b610eff81610ee4565b82525050565b6000602082019050610f1a6000830184610ef6565b92915050565b7f4e487b7100000000000000000000000000000000000000000000000000000000600052602160045260246000fd5b60028110610f6057610f5f610f20565b5b50565b6000819050610f7182610f4f565b919050565b6000610f8182610f63565b9050919050565b610f9181610f76565b82525050565b6000602082019050610fac6000830184610f88565b92915050565b600080fd5b600067ffffffffffffffff821115610fd257610fd1610c50565b5b610fdb82610c3f565b9050602081019050919050565b82818337600083830152505050565b600061100a61100584610fb7565b610cb0565b90508281526020810184848401111561102657611025610fb2565b5b611031848285610fe8565b509392505050565b600082601f83011261104e5761104d610c3a565b5b813561105e848260208601610ff7565b91505092915050565b60006020828403121561107d5761107c610c04565b5b600082013567ffffffffffffffff81111561109b5761109a610c09565b5b6110a784828501611039565b91505092915050565b60008115159050919050565b6110c5816110b0565b82525050565b600081519050919050565b600082825260208201905092915050565b60005b838110156111055780820151818401526020810190506110ea565b60008484015250505050565b600061111c826110cb565b61112681856110d6565b93506111368185602086016110e7565b61113f81610c3f565b840191505092915050565b600060408201905061115f60008301856110bc565b81810360208301526111718184611111565b90509392505050565b600060408201905061118f6000830185610ef6565b61119c6020830184610ef6565b9392505050565b60006080820190506111b86000830187610bd0565b6111c56020830186610bd0565b6111d26040830185610bd0565b6111df6060830184610bd0565b95945050505050565b6000819050919050565b6111fb816111e8565b82525050565b600067ffffffffffffffff82169050919050565b61121e81611201565b82525050565b600061ffff82169050919050565b61123b81611224565b82525050565b600063ffffffff82169050919050565b61125a81611241565b82525050565b600060a08201905061127560008301886111f2565b6112826020830187611215565b61128f6040830186611232565b61129c6060830185611251565b6112a96080830184611251565b9695505050505050565b6000815190506112c281610c0e565b92915050565b6000602082840312156112de576112dd610c04565b5b60006112ec848285016112b3565b91505092915050565b7f4e487b7100000000000000000000000000000000000000000000000000000000600052603260045260246000fd5b7f4e487b7100000000000000000000000000000000000000000000000000000000600052601160045260246000fd5b600061135e82610bc6565b915061136983610bc6565b925082820390508181111561138157611380611324565b5b92915050565b7f4e487b7100000000000000000000000000000000000000000000000000000000600052601260045260246000fd5b60006113c182610bc6565b91506113cc83610bc6565b9250826113dc576113db611387565b5b828206905092915050565b600081905092915050565b50565b60006114026000836113e7565b915061140d826113f2565b600082019050919050565b6000611423826113f5565b915081905091905056fea26469706673582212205ec0407c505063c0894ddb131f7565328817c4aa7cacde84d63021b1a71b45f164736f6c63430008120033",
  "devdoc": {
    "author": "Jatin Kalra",
    "details": "This implements Chainlink VRF V2 & Chainlink Keepers",
    "kind": "dev",
    "methods": {
      "checkUpkeep(bytes)": {
        "details": "This function is called by Chainlink Keepers nodes to determine if the upkeep is true.The following conditions must be true to return `true`:   i. time interval should have passed.   ii. The lottery should have at least 1 player and have some ETH.   iii. Our subscription is funded with LINK.   iv. The lottery should be in an \"open\" state.checkUpkeep and performUpkeep reference: https://docs.chain.link/chainlink-automation/compatible-contracts",
        "returns": {
          "upkeepNeeded": "True if the conditions for selecting a new random winner are met, false otherwise."
        }
      },
      "constructor": {
        "params": {
          "callbackGasLimit": "The gas limit for the callback request to fulfill the random number.",
          "entranceFee": "The minimum price required to enter the lottery.",
          "gasLane": "The unique identifier (keyHash) for the VRF system to generate random numbers. Max gas price.",
          "interval": "The interval between each winner selection.",
          "subscriptionId": "The unique subscription ID used for funding VRF requests.",
          "vrfCoordinatorV2": "The address of the VRFCoordinatorV2 contract."
        }
      },
      "enterLottery()": {
        "details": "Participants must send an amount of Ether greater than or equal to the entrance fee.The lottery must be in an \"open\" state to allow entries.Emits the `LotteryEnter` event when a participant successfully enters the lottery.Throws a `Lottery__NotEnoughETHEntered` error if the participant does not send enough Ether.Throws a `Lottery__NotOpen` error if the lottery is not in an \"open\" state."
      },
      "performUpkeep(bytes)": {
        "details": "This function is called by Chainlink Keepers when the conditions for selecting a new winner are met.Throws a `Lottery__checkUpkeepFalse` error if the conditions for selecting a new winner are not met.Emits the `RequestedLotteryWinner` event when a new winner is requested."
      }
    },
    "title": "A sample lottery contract",
    "version": 1
  },
  "userdoc": {
    "kind": "user",
    "methods": {
      "checkUpkeep(bytes)": {
        "notice": "Checks if it's time to select a new random winner and restart the lottery."
      },
      "constructor": {
        "notice": "Constructs a new Lottery contract with the parameters set here."
      },
      "enterLottery()": {
        "notice": "Allows a participant to enter the lottery by paying the entrance fee."
      },
      "performUpkeep(bytes)": {
        "notice": "Performs the upkeep and selects a new random winner for the lottery."
      }
    },
    "notice": "A contract for creating an untamperable decentralised smart contract",
    "version": 1
  },
  "storageLayout": {
    "storage": [
      {
        "astId": 1168,
        "contract": "contracts/lottery.sol:Lottery",
        "label": "s_players",
        "offset": 0,
        "slot": "0",
        "type": "t_array(t_address_payable)dyn_storage"
      },
      {
        "astId": 1185,
        "contract": "contracts/lottery.sol:Lottery",
        "label": "s_recentWinner",
        "offset": 0,
        "slot": "1",
        "type": "t_address"
      },
      {
        "astId": 1188,
        "contract": "contracts/lottery.sol:Lottery",
        "label": "s_lotteryState",
        "offset": 20,
        "slot": "1",
        "type": "t_enum(LotteryState)1163"
      },
      {
        "astId": 1190,
        "contract": "contracts/lottery.sol:Lottery",
        "label": "s_lastTimeStamp",
        "offset": 0,
        "slot": "2",
        "type": "t_uint256"
      }
    ],
    "types": {
      "t_address": {
        "encoding": "inplace",
        "label": "address",
        "numberOfBytes": "20"
      },
      "t_address_payable": {
        "encoding": "inplace",
        "label": "address payable",
        "numberOfBytes": "20"
      },
      "t_array(t_address_payable)dyn_storage": {
        "base": "t_address_payable",
        "encoding": "dynamic_array",
        "label": "address payable[]",
        "numberOfBytes": "32"
      },
      "t_enum(LotteryState)1163": {
        "encoding": "inplace",
        "label": "enum Lottery.LotteryState",
        "numberOfBytes": "1"
      },
      "t_uint256": {
        "encoding": "inplace",
        "label": "uint256",
        "numberOfBytes": "32"
      }
    }
  }
}