{
  "_format": "hh-sol-artifact-1",
  "contractName": "Lottery",
  "sourceName": "contracts/lottery.sol",
  "abi": [
    {
      "inputs": [
        {
          "internalType": "address",
          "name": "vrfCoordinatorV2",
          "type": "address"
        },
        {
          "internalType": "uint256",
          "name": "entranceFee",
          "type": "uint256"
        },
        {
          "internalType": "bytes32",
          "name": "gasLane",
          "type": "bytes32"
        },
        {
          "internalType": "uint64",
          "name": "subscriptionId",
          "type": "uint64"
        },
        {
          "internalType": "uint32",
          "name": "callbackGasLimit",
          "type": "uint32"
        },
        {
          "internalType": "uint256",
          "name": "interval",
          "type": "uint256"
        }
      ],
      "stateMutability": "nonpayable",
      "type": "constructor"
    },
    {
      "inputs": [],
      "name": "Lottery__NotEnoughETHEntered",
      "type": "error"
    },
    {
      "inputs": [],
      "name": "Lottery__NotOpen",
      "type": "error"
    },
    {
      "inputs": [],
      "name": "Lottery__WinnerTransferFailed",
      "type": "error"
    },
    {
      "inputs": [
        {
          "internalType": "uint256",
          "name": "currentBalance",
          "type": "uint256"
        },
        {
          "internalType": "uint256",
          "name": "numPlayers",
          "type": "uint256"
        },
        {
          "internalType": "uint256",
          "name": "lotteryState",
          "type": "uint256"
        }
      ],
      "name": "Lottery_checkUpKeepfalse",
      "type": "error"
    },
    {
      "inputs": [
        {
          "internalType": "address",
          "name": "have",
          "type": "address"
        },
        {
          "internalType": "address",
          "name": "want",
          "type": "address"
        }
      ],
      "name": "OnlyCoordinatorCanFulfill",
      "type": "error"
    },
    {
      "anonymous": false,
      "inputs": [
        {
          "indexed": true,
          "internalType": "address",
          "name": "player",
          "type": "address"
        }
      ],
      "name": "LotteryEnter",
      "type": "event"
    },
    {
      "anonymous": false,
      "inputs": [
        {
          "indexed": true,
          "internalType": "uint256",
          "name": "requestId",
          "type": "uint256"
        }
      ],
      "name": "RequestedLotteryWinner",
      "type": "event"
    },
    {
      "anonymous": false,
      "inputs": [
        {
          "indexed": true,
          "internalType": "address",
          "name": "winner",
          "type": "address"
        }
      ],
      "name": "WinnerPicked",
      "type": "event"
    },
    {
      "inputs": [
        {
          "internalType": "bytes",
          "name": "",
          "type": "bytes"
        }
      ],
      "name": "checkUpkeep",
      "outputs": [
        {
          "internalType": "bool",
          "name": "upkeepNeeded",
          "type": "bool"
        },
        {
          "internalType": "bytes",
          "name": "",
          "type": "bytes"
        }
      ],
      "stateMutability": "nonpayable",
      "type": "function"
    },
    {
      "inputs": [],
      "name": "enterLottery",
      "outputs": [],
      "stateMutability": "payable",
      "type": "function"
    },
    {
      "inputs": [],
      "name": "getEntranceFee",
      "outputs": [
        {
          "internalType": "uint256",
          "name": "",
          "type": "uint256"
        }
      ],
      "stateMutability": "view",
      "type": "function"
    },
    {
      "inputs": [],
      "name": "getLatestTimeStamp",
      "outputs": [
        {
          "internalType": "uint256",
          "name": "",
          "type": "uint256"
        }
      ],
      "stateMutability": "view",
      "type": "function"
    },
    {
      "inputs": [],
      "name": "getLotteryState",
      "outputs": [
        {
          "internalType": "enum Lottery.LotteryState",
          "name": "",
          "type": "uint8"
        }
      ],
      "stateMutability": "view",
      "type": "function"
    },
    {
      "inputs": [],
      "name": "getNumWords",
      "outputs": [
        {
          "internalType": "uint256",
          "name": "",
          "type": "uint256"
        }
      ],
      "stateMutability": "pure",
      "type": "function"
    },
    {
      "inputs": [],
      "name": "getNumberOfPlayers",
      "outputs": [
        {
          "internalType": "uint256",
          "name": "",
          "type": "uint256"
        }
      ],
      "stateMutability": "view",
      "type": "function"
    },
    {
      "inputs": [
        {
          "internalType": "uint256",
          "name": "index",
          "type": "uint256"
        }
      ],
      "name": "getPlayers",
      "outputs": [
        {
          "internalType": "address",
          "name": "",
          "type": "address"
        }
      ],
      "stateMutability": "view",
      "type": "function"
    },
    {
      "inputs": [],
      "name": "getRecentWinner",
      "outputs": [
        {
          "internalType": "address",
          "name": "",
          "type": "address"
        }
      ],
      "stateMutability": "view",
      "type": "function"
    },
    {
      "inputs": [],
      "name": "getRequestConfirmations",
      "outputs": [
        {
          "internalType": "uint256",
          "name": "",
          "type": "uint256"
        }
      ],
      "stateMutability": "pure",
      "type": "function"
    },
    {
      "inputs": [
        {
          "internalType": "bytes",
          "name": "",
          "type": "bytes"
        }
      ],
      "name": "performUpkeep",
      "outputs": [],
      "stateMutability": "nonpayable",
      "type": "function"
    },
    {
      "inputs": [
        {
          "internalType": "uint256",
          "name": "requestId",
          "type": "uint256"
        },
        {
          "internalType": "uint256[]",
          "name": "randomWords",
          "type": "uint256[]"
        }
      ],
      "name": "rawFulfillRandomWords",
      "outputs": [],
      "stateMutability": "nonpayable",
      "type": "function"
    }
  ],
  "bytecode": "0x6101406040523480156200001257600080fd5b506040516200176238038062001762833981810160405281019062000038919062000292565b858073ffffffffffffffffffffffffffffffffffffffff1660808173ffffffffffffffffffffffffffffffffffffffff1681525050508460a081815250508573ffffffffffffffffffffffffffffffffffffffff1660c08173ffffffffffffffffffffffffffffffffffffffff16815250508360e081815250508267ffffffffffffffff166101008167ffffffffffffffff16815250508163ffffffff166101208163ffffffff16815250506000600160146101000a81548160ff021916908360018111156200010d576200010c6200032e565b5b021790555042600281905550806003819055505050505050506200035d565b600080fd5b600073ffffffffffffffffffffffffffffffffffffffff82169050919050565b60006200015e8262000131565b9050919050565b620001708162000151565b81146200017c57600080fd5b50565b600081519050620001908162000165565b92915050565b6000819050919050565b620001ab8162000196565b8114620001b757600080fd5b50565b600081519050620001cb81620001a0565b92915050565b6000819050919050565b620001e681620001d1565b8114620001f257600080fd5b50565b6000815190506200020681620001db565b92915050565b600067ffffffffffffffff82169050919050565b6200022b816200020c565b81146200023757600080fd5b50565b6000815190506200024b8162000220565b92915050565b600063ffffffff82169050919050565b6200026c8162000251565b81146200027857600080fd5b50565b6000815190506200028c8162000261565b92915050565b60008060008060008060c08789031215620002b257620002b16200012c565b5b6000620002c289828a016200017f565b9650506020620002d589828a01620001ba565b9550506040620002e889828a01620001f5565b9450506060620002fb89828a016200023a565b93505060806200030e89828a016200027b565b92505060a06200032189828a01620001ba565b9150509295509295509295565b7f4e487b7100000000000000000000000000000000000000000000000000000000600052602160045260246000fd5b60805160a05160c05160e05161010051610120516113a7620003bb60003960006104d9015260006104b601526000610495015260006104590152600081816102b401526106c70152600081816102da015261032e01526113a76000f3fe6080604052600436106100a75760003560e01c806353a2c19a1161006457806353a2c19a146101bc5780635f1b0fd8146101e75780636b68c03c146102125780636e04ff0d1461023d578063c1af57851461027b578063fd6673f514610285576100a7565b806309bc33a7146100ac5780631fe543e3146100d7578063320229eb146101005780634585e33b1461012b578063460e204914610154578063473f1ddc14610191575b600080fd5b3480156100b857600080fd5b506100c16102b0565b6040516100ce9190610b31565b60405180910390f35b3480156100e357600080fd5b506100fe60048036038101906100f99190610ce5565b6102d8565b005b34801561010c57600080fd5b50610115610398565b6040516101229190610b31565b60405180910390f35b34801561013757600080fd5b50610152600480360381019061014d9190610d9c565b6103a2565b005b34801561016057600080fd5b5061017b60048036038101906101769190610de9565b610592565b6040516101889190610e57565b60405180910390f35b34801561019d57600080fd5b506101a66105d9565b6040516101b39190610e57565b60405180910390f35b3480156101c857600080fd5b506101d1610603565b6040516101de9190610b31565b60405180910390f35b3480156101f357600080fd5b506101fc610612565b6040516102099190610b31565b60405180910390f35b34801561021e57600080fd5b5061022761061f565b6040516102349190610ee9565b60405180910390f35b34801561024957600080fd5b50610264600480360381019061025f9190610fb9565b610636565b60405161027292919061109c565b60405180910390f35b6102836106c5565b005b34801561029157600080fd5b5061029a610834565b6040516102a79190610b31565b60405180910390f35b60007f0000000000000000000000000000000000000000000000000000000000000000905090565b7f000000000000000000000000000000000000000000000000000000000000000073ffffffffffffffffffffffffffffffffffffffff163373ffffffffffffffffffffffffffffffffffffffff161461038a57337f00000000000000000000000000000000000000000000000000000000000000006040517f1cf993f40000000000000000000000000000000000000000000000000000000081526004016103819291906110cc565b60405180910390fd5b6103948282610840565b5050565b6000600254905090565b60006103bc60405180602001604052806000815250610636565b5090508061042b5747600080549050600160149054906101000a900460ff1660018111156103ed576103ec610e72565b5b6040517f3c96b78a000000000000000000000000000000000000000000000000000000008152600401610422939291906110f5565b60405180910390fd5b60018060146101000a81548160ff021916908360018111156104505761044f610e72565b5b021790555060007f000000000000000000000000000000000000000000000000000000000000000073ffffffffffffffffffffffffffffffffffffffff16635d3b1d307f00000000000000000000000000000000000000000000000000000000000000007f000000000000000000000000000000000000000000000000000000000000000060037f000000000000000000000000000000000000000000000000000000000000000060016040518663ffffffff1660e01b815260040161051a9594939291906111a4565b6020604051808303816000875af1158015610539573d6000803e3d6000fd5b505050506040513d601f19601f8201168201806040525081019061055d919061120c565b9050807febf56642252004c18a776f30d528e7a0ce8c5db14b6596fb6550f630c8a24c6c60405160405180910390a250505050565b60008082815481106105a7576105a6611239565b5b9060005260206000200160009054906101000a900473ffffffffffffffffffffffffffffffffffffffff169050919050565b6000600160009054906101000a900473ffffffffffffffffffffffffffffffffffffffff16905090565b6000600163ffffffff16905090565b6000600361ffff16905090565b6000600160149054906101000a900460ff16905090565b600060606000600160149054906101000a900460ff16600181111561065e5761065d610e72565b5b6000600181111561067257610671610e72565b5b1490506000600354600254426106889190611297565b119050600080600080549050119050600080471190508380156106a85750825b80156106b15750815b80156106ba5750805b955050505050915091565b7f000000000000000000000000000000000000000000000000000000000000000034101561071f576040517fec269fd100000000000000000000000000000000000000000000000000000000815260040160405180910390fd5b6000600181111561073357610732610e72565b5b600160149054906101000a900460ff16600181111561075557610754610e72565b5b1461078c576040517fe76be6fc00000000000000000000000000000000000000000000000000000000815260040160405180910390fd5b6000339080600181540180825580915050600190039060005260206000200160009091909190916101000a81548173ffffffffffffffffffffffffffffffffffffffff021916908373ffffffffffffffffffffffffffffffffffffffff1602179055503373ffffffffffffffffffffffffffffffffffffffff167f1d64fb5ba9f2548c5b98468d58f25b87b9e866afee0122e92d9fe722bf85076c60405160405180910390a2565b60008080549050905090565b600080805490508260008151811061085b5761085a611239565b5b602002602001015161086d91906112fa565b9050600080828154811061088457610883611239565b5b9060005260206000200160009054906101000a900473ffffffffffffffffffffffffffffffffffffffff16905080600160006101000a81548173ffffffffffffffffffffffffffffffffffffffff021916908373ffffffffffffffffffffffffffffffffffffffff1602179055506000600160146101000a81548160ff0219169083600181111561091857610917610e72565b5b021790555060008173ffffffffffffffffffffffffffffffffffffffff16476040516109439061135c565b60006040518083038185875af1925050503d8060008114610980576040519150601f19603f3d011682016040523d82523d6000602084013e610985565b606091505b50509050806109c0576040517f061104de00000000000000000000000000000000000000000000000000000000815260040160405180910390fd5b8173ffffffffffffffffffffffffffffffffffffffff167f5b690ec4a06fe979403046eaeea5b3ce38524683c3001f662c8b5a829632f7df60405160405180910390a2600067ffffffffffffffff811115610a1e57610a1d610ba2565b5b604051908082528060200260200182016040528015610a4c5781602001602082028036833780820191505090505b5060009080519060200190610a62929190610a71565b50426002819055505050505050565b828054828255906000526020600020908101928215610aea579160200282015b82811115610ae95782518260006101000a81548173ffffffffffffffffffffffffffffffffffffffff021916908373ffffffffffffffffffffffffffffffffffffffff16021790555091602001919060010190610a91565b5b509050610af79190610afb565b5090565b5b80821115610b14576000816000905550600101610afc565b5090565b6000819050919050565b610b2b81610b18565b82525050565b6000602082019050610b466000830184610b22565b92915050565b6000604051905090565b600080fd5b600080fd5b610b6981610b18565b8114610b7457600080fd5b50565b600081359050610b8681610b60565b92915050565b600080fd5b6000601f19601f8301169050919050565b7f4e487b7100000000000000000000000000000000000000000000000000000000600052604160045260246000fd5b610bda82610b91565b810181811067ffffffffffffffff82111715610bf957610bf8610ba2565b5b80604052505050565b6000610c0c610b4c565b9050610c188282610bd1565b919050565b600067ffffffffffffffff821115610c3857610c37610ba2565b5b602082029050602081019050919050565b600080fd5b6000610c61610c5c84610c1d565b610c02565b90508083825260208201905060208402830185811115610c8457610c83610c49565b5b835b81811015610cad5780610c998882610b77565b845260208401935050602081019050610c86565b5050509392505050565b600082601f830112610ccc57610ccb610b8c565b5b8135610cdc848260208601610c4e565b91505092915050565b60008060408385031215610cfc57610cfb610b56565b5b6000610d0a85828601610b77565b925050602083013567ffffffffffffffff811115610d2b57610d2a610b5b565b5b610d3785828601610cb7565b9150509250929050565b600080fd5b60008083601f840112610d5c57610d5b610b8c565b5b8235905067ffffffffffffffff811115610d7957610d78610d41565b5b602083019150836001820283011115610d9557610d94610c49565b5b9250929050565b60008060208385031215610db357610db2610b56565b5b600083013567ffffffffffffffff811115610dd157610dd0610b5b565b5b610ddd85828601610d46565b92509250509250929050565b600060208284031215610dff57610dfe610b56565b5b6000610e0d84828501610b77565b91505092915050565b600073ffffffffffffffffffffffffffffffffffffffff82169050919050565b6000610e4182610e16565b9050919050565b610e5181610e36565b82525050565b6000602082019050610e6c6000830184610e48565b92915050565b7f4e487b7100000000000000000000000000000000000000000000000000000000600052602160045260246000fd5b60028110610eb257610eb1610e72565b5b50565b6000819050610ec382610ea1565b919050565b6000610ed382610eb5565b9050919050565b610ee381610ec8565b82525050565b6000602082019050610efe6000830184610eda565b92915050565b600080fd5b600067ffffffffffffffff821115610f2457610f23610ba2565b5b610f2d82610b91565b9050602081019050919050565b82818337600083830152505050565b6000610f5c610f5784610f09565b610c02565b905082815260208101848484011115610f7857610f77610f04565b5b610f83848285610f3a565b509392505050565b600082601f830112610fa057610f9f610b8c565b5b8135610fb0848260208601610f49565b91505092915050565b600060208284031215610fcf57610fce610b56565b5b600082013567ffffffffffffffff811115610fed57610fec610b5b565b5b610ff984828501610f8b565b91505092915050565b60008115159050919050565b61101781611002565b82525050565b600081519050919050565b600082825260208201905092915050565b60005b8381101561105757808201518184015260208101905061103c565b60008484015250505050565b600061106e8261101d565b6110788185611028565b9350611088818560208601611039565b61109181610b91565b840191505092915050565b60006040820190506110b1600083018561100e565b81810360208301526110c38184611063565b90509392505050565b60006040820190506110e16000830185610e48565b6110ee6020830184610e48565b9392505050565b600060608201905061110a6000830186610b22565b6111176020830185610b22565b6111246040830184610b22565b949350505050565b6000819050919050565b61113f8161112c565b82525050565b600067ffffffffffffffff82169050919050565b61116281611145565b82525050565b600061ffff82169050919050565b61117f81611168565b82525050565b600063ffffffff82169050919050565b61119e81611185565b82525050565b600060a0820190506111b96000830188611136565b6111c66020830187611159565b6111d36040830186611176565b6111e06060830185611195565b6111ed6080830184611195565b9695505050505050565b60008151905061120681610b60565b92915050565b60006020828403121561122257611221610b56565b5b6000611230848285016111f7565b91505092915050565b7f4e487b7100000000000000000000000000000000000000000000000000000000600052603260045260246000fd5b7f4e487b7100000000000000000000000000000000000000000000000000000000600052601160045260246000fd5b60006112a282610b18565b91506112ad83610b18565b92508282039050818111156112c5576112c4611268565b5b92915050565b7f4e487b7100000000000000000000000000000000000000000000000000000000600052601260045260246000fd5b600061130582610b18565b915061131083610b18565b9250826113205761131f6112cb565b5b828206905092915050565b600081905092915050565b50565b600061134660008361132b565b915061135182611336565b600082019050919050565b600061136782611339565b915081905091905056fea26469706673582212204807b3e60b9d5a4712a21d1de18313493d9892e4a07b6040fe91cc0de65422f264736f6c63430008120033",
  "linkReferences": {},
  "deployedLinkReferences": {}
}