{
  "_format": "hh-sol-artifact-1",
  "contractName": "Lottery",
  "sourceName": "contracts/lottery.sol",
  "abi": [
    {
      "inputs": [
        {
          "internalType": "address",
          "name": "vrfCoordinatorV2",
          "type": "address"
        },
        {
          "internalType": "uint256",
          "name": "entranceFee",
          "type": "uint256"
        },
        {
          "internalType": "bytes32",
          "name": "gasLane",
          "type": "bytes32"
        },
        {
          "internalType": "uint64",
          "name": "subscriptionId",
          "type": "uint64"
        },
        {
          "internalType": "uint32",
          "name": "callbackGasLimit",
          "type": "uint32"
        },
        {
          "internalType": "uint256",
          "name": "interval",
          "type": "uint256"
        }
      ],
      "stateMutability": "nonpayable",
      "type": "constructor"
    },
    {
      "inputs": [],
      "name": "Lottery__NotEnoughETHEntered",
      "type": "error"
    },
    {
      "inputs": [],
      "name": "Lottery__NotOpen",
      "type": "error"
    },
    {
      "inputs": [],
      "name": "Lottery__WinnerTransferFailed",
      "type": "error"
    },
    {
      "inputs": [
        {
          "internalType": "uint256",
          "name": "currentBalance",
          "type": "uint256"
        },
        {
          "internalType": "uint256",
          "name": "numPlayers",
          "type": "uint256"
        },
        {
          "internalType": "uint256",
          "name": "lotteryState",
          "type": "uint256"
        }
      ],
      "name": "Lottery_checkUpKeepfalse",
      "type": "error"
    },
    {
      "inputs": [
        {
          "internalType": "address",
          "name": "have",
          "type": "address"
        },
        {
          "internalType": "address",
          "name": "want",
          "type": "address"
        }
      ],
      "name": "OnlyCoordinatorCanFulfill",
      "type": "error"
    },
    {
      "anonymous": false,
      "inputs": [
        {
          "indexed": true,
          "internalType": "address",
          "name": "player",
          "type": "address"
        }
      ],
      "name": "LotteryEnter",
      "type": "event"
    },
    {
      "anonymous": false,
      "inputs": [
        {
          "indexed": true,
          "internalType": "uint256",
          "name": "requestId",
          "type": "uint256"
        }
      ],
      "name": "RequestedLotteryWinner",
      "type": "event"
    },
    {
      "anonymous": false,
      "inputs": [
        {
          "indexed": true,
          "internalType": "address",
          "name": "winner",
          "type": "address"
        }
      ],
      "name": "WinnerPicked",
      "type": "event"
    },
    {
      "inputs": [
        {
          "internalType": "bytes",
          "name": "",
          "type": "bytes"
        }
      ],
      "name": "checkUpkeep",
      "outputs": [
        {
          "internalType": "bool",
          "name": "upkeepNeeded",
          "type": "bool"
        },
        {
          "internalType": "bytes",
          "name": "",
          "type": "bytes"
        }
      ],
      "stateMutability": "nonpayable",
      "type": "function"
    },
    {
      "inputs": [],
      "name": "enterLottery",
      "outputs": [],
      "stateMutability": "payable",
      "type": "function"
    },
    {
      "inputs": [],
      "name": "getEntranceFee",
      "outputs": [
        {
          "internalType": "uint256",
          "name": "",
          "type": "uint256"
        }
      ],
      "stateMutability": "view",
      "type": "function"
    },
    {
      "inputs": [],
      "name": "getInterval",
      "outputs": [
        {
          "internalType": "uint256",
          "name": "",
          "type": "uint256"
        }
      ],
      "stateMutability": "view",
      "type": "function"
    },
    {
      "inputs": [],
      "name": "getLatestTimeStamp",
      "outputs": [
        {
          "internalType": "uint256",
          "name": "",
          "type": "uint256"
        }
      ],
      "stateMutability": "view",
      "type": "function"
    },
    {
      "inputs": [],
      "name": "getLotteryState",
      "outputs": [
        {
          "internalType": "enum Lottery.LotteryState",
          "name": "",
          "type": "uint8"
        }
      ],
      "stateMutability": "view",
      "type": "function"
    },
    {
      "inputs": [],
      "name": "getNumWords",
      "outputs": [
        {
          "internalType": "uint256",
          "name": "",
          "type": "uint256"
        }
      ],
      "stateMutability": "pure",
      "type": "function"
    },
    {
      "inputs": [],
      "name": "getNumberOfPlayers",
      "outputs": [
        {
          "internalType": "uint256",
          "name": "",
          "type": "uint256"
        }
      ],
      "stateMutability": "view",
      "type": "function"
    },
    {
      "inputs": [
        {
          "internalType": "uint256",
          "name": "index",
          "type": "uint256"
        }
      ],
      "name": "getPlayers",
      "outputs": [
        {
          "internalType": "address",
          "name": "",
          "type": "address"
        }
      ],
      "stateMutability": "view",
      "type": "function"
    },
    {
      "inputs": [],
      "name": "getRecentWinner",
      "outputs": [
        {
          "internalType": "address",
          "name": "",
          "type": "address"
        }
      ],
      "stateMutability": "view",
      "type": "function"
    },
    {
      "inputs": [],
      "name": "getRequestConfirmations",
      "outputs": [
        {
          "internalType": "uint256",
          "name": "",
          "type": "uint256"
        }
      ],
      "stateMutability": "pure",
      "type": "function"
    },
    {
      "inputs": [
        {
          "internalType": "bytes",
          "name": "",
          "type": "bytes"
        }
      ],
      "name": "performUpkeep",
      "outputs": [],
      "stateMutability": "nonpayable",
      "type": "function"
    },
    {
      "inputs": [
        {
          "internalType": "uint256",
          "name": "requestId",
          "type": "uint256"
        },
        {
          "internalType": "uint256[]",
          "name": "randomWords",
          "type": "uint256[]"
        }
      ],
      "name": "rawFulfillRandomWords",
      "outputs": [],
      "stateMutability": "nonpayable",
      "type": "function"
    }
  ],
  "bytecode": "0x6101406040523480156200001257600080fd5b50604051620017b2380380620017b2833981810160405281019062000038919062000292565b858073ffffffffffffffffffffffffffffffffffffffff1660808173ffffffffffffffffffffffffffffffffffffffff1681525050508460a081815250508573ffffffffffffffffffffffffffffffffffffffff1660c08173ffffffffffffffffffffffffffffffffffffffff16815250508360e081815250508267ffffffffffffffff166101008167ffffffffffffffff16815250508163ffffffff166101208163ffffffff16815250506000600160146101000a81548160ff021916908360018111156200010d576200010c6200032e565b5b021790555042600281905550806003819055505050505050506200035d565b600080fd5b600073ffffffffffffffffffffffffffffffffffffffff82169050919050565b60006200015e8262000131565b9050919050565b620001708162000151565b81146200017c57600080fd5b50565b600081519050620001908162000165565b92915050565b6000819050919050565b620001ab8162000196565b8114620001b757600080fd5b50565b600081519050620001cb81620001a0565b92915050565b6000819050919050565b620001e681620001d1565b8114620001f257600080fd5b50565b6000815190506200020681620001db565b92915050565b600067ffffffffffffffff82169050919050565b6200022b816200020c565b81146200023757600080fd5b50565b6000815190506200024b8162000220565b92915050565b600063ffffffff82169050919050565b6200026c8162000251565b81146200027857600080fd5b50565b6000815190506200028c8162000261565b92915050565b60008060008060008060c08789031215620002b257620002b16200012c565b5b6000620002c289828a016200017f565b9650506020620002d589828a01620001ba565b9550506040620002e889828a01620001f5565b9450506060620002fb89828a016200023a565b93505060806200030e89828a016200027b565b92505060a06200032189828a01620001ba565b9150509295509295509295565b7f4e487b7100000000000000000000000000000000000000000000000000000000600052602160045260246000fd5b60805160a05160c05160e05161010051610120516113f7620003bb600039600061051f015260006104fc015260006104db0152600061049f0152600081816102fa0152610717015260008181610320015261037401526113f76000f3fe6080604052600436106100c25760003560e01c806353a2c19a1161007f5780636e04ff0d116100595780636e04ff0d1461025857806391ad27b414610296578063c1af5785146102c1578063fd6673f5146102cb576100c2565b806353a2c19a146101d75780635f1b0fd8146102025780636b68c03c1461022d576100c2565b806309bc33a7146100c75780631fe543e3146100f2578063320229eb1461011b5780634585e33b14610146578063460e20491461016f578063473f1ddc146101ac575b600080fd5b3480156100d357600080fd5b506100dc6102f6565b6040516100e99190610b81565b60405180910390f35b3480156100fe57600080fd5b5061011960048036038101906101149190610d35565b61031e565b005b34801561012757600080fd5b506101306103de565b60405161013d9190610b81565b60405180910390f35b34801561015257600080fd5b5061016d60048036038101906101689190610dec565b6103e8565b005b34801561017b57600080fd5b5061019660048036038101906101919190610e39565b6105d8565b6040516101a39190610ea7565b60405180910390f35b3480156101b857600080fd5b506101c161061f565b6040516101ce9190610ea7565b60405180910390f35b3480156101e357600080fd5b506101ec610649565b6040516101f99190610b81565b60405180910390f35b34801561020e57600080fd5b50610217610658565b6040516102249190610b81565b60405180910390f35b34801561023957600080fd5b50610242610665565b60405161024f9190610f39565b60405180910390f35b34801561026457600080fd5b5061027f600480360381019061027a9190611009565b61067c565b60405161028d9291906110ec565b60405180910390f35b3480156102a257600080fd5b506102ab61070b565b6040516102b89190610b81565b60405180910390f35b6102c9610715565b005b3480156102d757600080fd5b506102e0610884565b6040516102ed9190610b81565b60405180910390f35b60007f0000000000000000000000000000000000000000000000000000000000000000905090565b7f000000000000000000000000000000000000000000000000000000000000000073ffffffffffffffffffffffffffffffffffffffff163373ffffffffffffffffffffffffffffffffffffffff16146103d057337f00000000000000000000000000000000000000000000000000000000000000006040517f1cf993f40000000000000000000000000000000000000000000000000000000081526004016103c792919061111c565b60405180910390fd5b6103da8282610890565b5050565b6000600254905090565b60006104026040518060200160405280600081525061067c565b509050806104715747600080549050600160149054906101000a900460ff16600181111561043357610432610ec2565b5b6040517f3c96b78a00000000000000000000000000000000000000000000000000000000815260040161046893929190611145565b60405180910390fd5b60018060146101000a81548160ff0219169083600181111561049657610495610ec2565b5b021790555060007f000000000000000000000000000000000000000000000000000000000000000073ffffffffffffffffffffffffffffffffffffffff16635d3b1d307f00000000000000000000000000000000000000000000000000000000000000007f000000000000000000000000000000000000000000000000000000000000000060037f000000000000000000000000000000000000000000000000000000000000000060016040518663ffffffff1660e01b81526004016105609594939291906111f4565b6020604051808303816000875af115801561057f573d6000803e3d6000fd5b505050506040513d601f19601f820116820180604052508101906105a3919061125c565b9050807febf56642252004c18a776f30d528e7a0ce8c5db14b6596fb6550f630c8a24c6c60405160405180910390a250505050565b60008082815481106105ed576105ec611289565b5b9060005260206000200160009054906101000a900473ffffffffffffffffffffffffffffffffffffffff169050919050565b6000600160009054906101000a900473ffffffffffffffffffffffffffffffffffffffff16905090565b6000600163ffffffff16905090565b6000600361ffff16905090565b6000600160149054906101000a900460ff16905090565b600060606000600160149054906101000a900460ff1660018111156106a4576106a3610ec2565b5b600060018111156106b8576106b7610ec2565b5b1490506000600354600254426106ce91906112e7565b119050600080600080549050119050600080471190508380156106ee5750825b80156106f75750815b80156107005750805b955050505050915091565b6000600354905090565b7f000000000000000000000000000000000000000000000000000000000000000034101561076f576040517fec269fd100000000000000000000000000000000000000000000000000000000815260040160405180910390fd5b6000600181111561078357610782610ec2565b5b600160149054906101000a900460ff1660018111156107a5576107a4610ec2565b5b146107dc576040517fe76be6fc00000000000000000000000000000000000000000000000000000000815260040160405180910390fd5b6000339080600181540180825580915050600190039060005260206000200160009091909190916101000a81548173ffffffffffffffffffffffffffffffffffffffff021916908373ffffffffffffffffffffffffffffffffffffffff1602179055503373ffffffffffffffffffffffffffffffffffffffff167f1d64fb5ba9f2548c5b98468d58f25b87b9e866afee0122e92d9fe722bf85076c60405160405180910390a2565b60008080549050905090565b60008080549050826000815181106108ab576108aa611289565b5b60200260200101516108bd919061134a565b905060008082815481106108d4576108d3611289565b5b9060005260206000200160009054906101000a900473ffffffffffffffffffffffffffffffffffffffff16905080600160006101000a81548173ffffffffffffffffffffffffffffffffffffffff021916908373ffffffffffffffffffffffffffffffffffffffff1602179055506000600160146101000a81548160ff0219169083600181111561096857610967610ec2565b5b021790555060008173ffffffffffffffffffffffffffffffffffffffff1647604051610993906113ac565b60006040518083038185875af1925050503d80600081146109d0576040519150601f19603f3d011682016040523d82523d6000602084013e6109d5565b606091505b5050905080610a10576040517f061104de00000000000000000000000000000000000000000000000000000000815260040160405180910390fd5b8173ffffffffffffffffffffffffffffffffffffffff167f5b690ec4a06fe979403046eaeea5b3ce38524683c3001f662c8b5a829632f7df60405160405180910390a2600067ffffffffffffffff811115610a6e57610a6d610bf2565b5b604051908082528060200260200182016040528015610a9c5781602001602082028036833780820191505090505b5060009080519060200190610ab2929190610ac1565b50426002819055505050505050565b828054828255906000526020600020908101928215610b3a579160200282015b82811115610b395782518260006101000a81548173ffffffffffffffffffffffffffffffffffffffff021916908373ffffffffffffffffffffffffffffffffffffffff16021790555091602001919060010190610ae1565b5b509050610b479190610b4b565b5090565b5b80821115610b64576000816000905550600101610b4c565b5090565b6000819050919050565b610b7b81610b68565b82525050565b6000602082019050610b966000830184610b72565b92915050565b6000604051905090565b600080fd5b600080fd5b610bb981610b68565b8114610bc457600080fd5b50565b600081359050610bd681610bb0565b92915050565b600080fd5b6000601f19601f8301169050919050565b7f4e487b7100000000000000000000000000000000000000000000000000000000600052604160045260246000fd5b610c2a82610be1565b810181811067ffffffffffffffff82111715610c4957610c48610bf2565b5b80604052505050565b6000610c5c610b9c565b9050610c688282610c21565b919050565b600067ffffffffffffffff821115610c8857610c87610bf2565b5b602082029050602081019050919050565b600080fd5b6000610cb1610cac84610c6d565b610c52565b90508083825260208201905060208402830185811115610cd457610cd3610c99565b5b835b81811015610cfd5780610ce98882610bc7565b845260208401935050602081019050610cd6565b5050509392505050565b600082601f830112610d1c57610d1b610bdc565b5b8135610d2c848260208601610c9e565b91505092915050565b60008060408385031215610d4c57610d4b610ba6565b5b6000610d5a85828601610bc7565b925050602083013567ffffffffffffffff811115610d7b57610d7a610bab565b5b610d8785828601610d07565b9150509250929050565b600080fd5b60008083601f840112610dac57610dab610bdc565b5b8235905067ffffffffffffffff811115610dc957610dc8610d91565b5b602083019150836001820283011115610de557610de4610c99565b5b9250929050565b60008060208385031215610e0357610e02610ba6565b5b600083013567ffffffffffffffff811115610e2157610e20610bab565b5b610e2d85828601610d96565b92509250509250929050565b600060208284031215610e4f57610e4e610ba6565b5b6000610e5d84828501610bc7565b91505092915050565b600073ffffffffffffffffffffffffffffffffffffffff82169050919050565b6000610e9182610e66565b9050919050565b610ea181610e86565b82525050565b6000602082019050610ebc6000830184610e98565b92915050565b7f4e487b7100000000000000000000000000000000000000000000000000000000600052602160045260246000fd5b60028110610f0257610f01610ec2565b5b50565b6000819050610f1382610ef1565b919050565b6000610f2382610f05565b9050919050565b610f3381610f18565b82525050565b6000602082019050610f4e6000830184610f2a565b92915050565b600080fd5b600067ffffffffffffffff821115610f7457610f73610bf2565b5b610f7d82610be1565b9050602081019050919050565b82818337600083830152505050565b6000610fac610fa784610f59565b610c52565b905082815260208101848484011115610fc857610fc7610f54565b5b610fd3848285610f8a565b509392505050565b600082601f830112610ff057610fef610bdc565b5b8135611000848260208601610f99565b91505092915050565b60006020828403121561101f5761101e610ba6565b5b600082013567ffffffffffffffff81111561103d5761103c610bab565b5b61104984828501610fdb565b91505092915050565b60008115159050919050565b61106781611052565b82525050565b600081519050919050565b600082825260208201905092915050565b60005b838110156110a757808201518184015260208101905061108c565b60008484015250505050565b60006110be8261106d565b6110c88185611078565b93506110d8818560208601611089565b6110e181610be1565b840191505092915050565b6000604082019050611101600083018561105e565b818103602083015261111381846110b3565b90509392505050565b60006040820190506111316000830185610e98565b61113e6020830184610e98565b9392505050565b600060608201905061115a6000830186610b72565b6111676020830185610b72565b6111746040830184610b72565b949350505050565b6000819050919050565b61118f8161117c565b82525050565b600067ffffffffffffffff82169050919050565b6111b281611195565b82525050565b600061ffff82169050919050565b6111cf816111b8565b82525050565b600063ffffffff82169050919050565b6111ee816111d5565b82525050565b600060a0820190506112096000830188611186565b61121660208301876111a9565b61122360408301866111c6565b61123060608301856111e5565b61123d60808301846111e5565b9695505050505050565b60008151905061125681610bb0565b92915050565b60006020828403121561127257611271610ba6565b5b600061128084828501611247565b91505092915050565b7f4e487b7100000000000000000000000000000000000000000000000000000000600052603260045260246000fd5b7f4e487b7100000000000000000000000000000000000000000000000000000000600052601160045260246000fd5b60006112f282610b68565b91506112fd83610b68565b9250828203905081811115611315576113146112b8565b5b92915050565b7f4e487b7100000000000000000000000000000000000000000000000000000000600052601260045260246000fd5b600061135582610b68565b915061136083610b68565b9250826113705761136f61131b565b5b828206905092915050565b600081905092915050565b50565b600061139660008361137b565b91506113a182611386565b600082019050919050565b60006113b782611389565b915081905091905056fea26469706673582212204199346f731001178c7e43b0a05a40c69a039070c3b4c4661f541b396a8283f464736f6c63430008120033",
  "linkReferences": {},
  "deployedLinkReferences": {}
}